:040000000200853243
:01000B0032C2
:030013000216F3DF
:03001B000217D4F5
:0100230032AA
:03002B0002511C63
:01003300329A
:03003B000217C7E2
:0300430002544F15
:03004B00023FA1D0
:01005300327A
:01005B003272
:01006300326A
:03006B000215116A
:030073000218A8C8
:03007B000215FC6F
:03010F0002007E6D
:05007E001202FC80FEEF
:0A011200C008858108C082C0837C0C
:03011C00007D0063
:0E011F00C3EC9490ED64809481400302020EC4
:0E012D00C374C89C74808DF063F08095F05010
:0C013B000B7490C39CFE74019DFF8004B7
:040147008C068D078E
:0C014B00A8080886028A82C002C004C016
:0E01570005C006C007121ABDD007D006D0059D
:0B016500D004D00290E000E4F0A3F012
:0E017000C00290E000E0FBA3E0FAC3EB9EEAC1
:0E017E0064808FF063F08095F0D0025022C0B4
:0E018C000290E000E0FBA3E0FA90E002EBF04E
:0E019A00A3EAF090E000E02401F0A3E03400BE
:0501A800F0D00280C34D
:0E01AD008A82C004C005C006C007121AD4D052
:0E01BB0007D006D005D00490E000E4F0A3F0D9
:0801C90074C8C39EFAE49FFB19
:0E01D10090E000E0FEA3E0FFC3EE9AEF648032
:0E01DF008BF063F08095F0501E90E000E0FE83
:0E01ED00A3E0FF90E002EEF0A3EFF090E00040
:0B01FB00E02401F0A3E03400F080CB12
:050206000CBC00010D1D
:03020B0002011FCE
:06020E00850881D00822E2
:0A021400C00885810805810581C23C
:0A021E00AF759F037AF87BFF7C00A8
:03022800BC08000F
:0A022B00501DEC2406FDE434E0FE53
:0E0235008A828B83E493FFA3AA82AB838D821F
:070243008E83EFF00C80DE5A
:0C024A00759F01D2AFAA080A7B007C401F
:0E0256007402C0E0E4C0E0E4C0E08A828B8362
:0E0264008CF0125B5015811581158190EC2BEA
:09027200E0FAA3E0FB4A701FFA58
:03027B00BA0200C4
:0C027E005038AB080BEA2BF87401C39A4F
:0A028A002406F582E434E0F583E079
:05029400FBF60A80E208
:0A02990090AA8975F080124306AAAE
:0C02A300080AEA04F890EC2BE0FAA3E053
:0902AF00FCF6A808087B00A60279
:0C02B800AA080A7B007C408A828B838CA1
:0C02C400F012474CA8080886028A037A52
:0C02D00000AC080CEC04F886047D00EC87
:0E02DC002AFAED3BFBE4C0E0C0E0C0E0C00247
:0D02EA00C00390FFFF123E7DE58124FB85DF
:0502F7000881D008227F
:0702FC001270D41226AB12B0
:090303002855121A8B900001121A
:0D030C00011290C20075F001E412597990C1
:0603190028B61217C812FD
:06031F002F56122A469041
:09032500AAAE75F08012430690A7
:09032E00AAC775F0801243061203
:090337001B369000001263A412B1
:0D03400043AD120214E4C0E0C0E0C0E09044
:0E034D00EC3C75F000122A881581158115818F
:0E035B001266DFE4C0E0C0E0C0E090EC607528
:0E036900F000122A881581158115811224A535
:0E037700900004120112124055AAE27B00AD64
:0E038500E37C00EC2AFAED3BFB90E30AEAF081
:0E039300A3EBF090E3227401F090AAFB75F04A
:0703A10080124768121B3AAD
:0E03A800121B3E123198AA82AB83C3E49A74F2
:0E03B600808BF063F08095F040E890AC7BE423
:0E03C40093FAA3E493FB8A828B83120083AA30
:0E03D20082AB8390E004EAF0A3EBF0EA4B600C
:0E03E000C71249DB124D9EAA82AB83ACF074AB
:0D03EE0080C0E0E4C0E08A828B838CF012B6
:0E03FB003B4EAA82AB831581158190E004EA87
:0E040900F0A3EBF0C3E49A74808BF063F080F4
:0E04170095F0508D8A828B83124D9290ACBE70
:0E042500E493FAA3E493FBC002C0038A828B27
:0B04330083120083D003D0020203A854
:0EAA890053657474696E67206D616E75616C43
:0EAA970020616464726573732066726F6D20B7
:09AAA5006E6F64655F69640A00CC
:0EAAAE0057656C636F6D6520746F20436F6E8B
:0BAABC0074696B6920322E342E0A00F2
:0EAAC70052756E6E696E67206F6E3A204E37C4
:0EAAD5003430204E616E6F53656E736F7220C9
:0EAAE300284343323433312D46313238292E88
:02AAF1000A0059
:02AD0C00000045
:0E00DE0090E0A2E4F0A3F090E0A4E4F0A3F020
:0E00EC0090E0A6E4F0A3F090E0A8E4F0A3F00A
:0D00FA0090E0AAE4F0A3F090E0ACE4F090F8
:03010700E0ADF078
:0A043E00C008E581F5082412F581DD
:0C044800124D9EAA82AB83ACF0A80808FD
:0C045400A60208A60308A604A808088653
:0E046000820886830886F0127037FDBD2502E3
:02046E00800309
:030470000208E49B
:0C04730090E099E4F0A3F0A808087401E0
:0E047F0026FDE40836FE0886078D828E838FE8
:0C048D00F0127037FDE5082404F8A60505
:0C049900087600E5082404F8E608F618D0
:0C04A5007600A80808740226FFE4083660
:0E04B100FD0886068F828D838EF0127037FF55
:0C04BF007D00E5082404F8EF46F6ED0887
:0A04CB0046F6E50824FBF8E50824D6
:0D04D50010F9E6F70809E6F70809E6F7E573
:0A04E200082410F8E508240AF97454
:0D04EC000126F7E4083609F70809E6F7E5F0
:0C04F90008240AF886820886830886F032
:0C050500127037FAE5082406F8A6020878
:0C0511007600E5082406F8E608F61876E7
:0C051D0000E5082410F886820886830898
:0C05290086F0127037FC7A00E50824060A
:0C053500F8EC46F6EA0846F6A808087440
:0E0541000326FAE40836FB0886048A828B83C0
:0C054F008CF0127037FAE5082408F8A6BA
:0C055B0002A80808740426FBE40836FC23
:0E0567000886028B828C838AF0127037FBE5C7
:0A057500082409F8A603A80808747A
:0E057F000526FBE40836FC0886028B828C837E
:0C058D008AF0127037FDA80808740726D9
:0E059900FBE40836FC0886028B828C838AF015
:0E05A700127037FB7A0090E0617423F0A3F02D
:0C05B50090E0A2E4F0A3F0E5082404F8B4
:0A05C100088604E508240DF8A605DD
:0C05CB0090E0A2E508240EF8E0F6A3E0A2
:0C05D70008F6E508240EF8C3E6940308BB
:0A05E300E66480948040030208E4FF
:0C05ED00C004C002C003E508240EF8E6BC
:0E05F900C0E008E6C0E090000712493DAC8269
:0C060700AD8315811581D003D002EC24D6
:0A06130029F582ED34E0F583E0FCE8
:0B061D00E508240DF8E6B50402800497
:04062800D004801466
:0E062C00D004C002C003C0041249DBD004D0C9
:06063A0003D0020208D506
:0C06400090E061E0FDA3E0FEE50824046A
:0C064C00F8E6B5050708E6B506028003D5
:0306580002076333
:0C065B0090E065E0FDA3E0FEE508240649
:0C066700F8E6B5050708E6B506028002BB
:020673008012F3
:0E067500C002C003C0041249DBD004D003D081
:04068300020208D592
:0C06870090E0997401F0A3E4F0E5082471
:0D0693000EF8E6C0E008E6C0E09000091295
:0C06A000493DAD82AE8315811581ED242B
:0906AC000EF582EE34E0F583E561
:0C06B500082404F8E6F0A308E6F0ED24A9
:0A06C1000EFDEE34E0FE8D828E8304
:0C06CB00A3A3E5082406F8E6F0A308E667
:0E06D700F08D828E83A3A3A3A3E4F0A3F0749E
:0E06E500062DFAE43EFB758204C002C003122B
:0E06F3004FEBAF82AD83D003D0028A828B839F
:0E070100EFF0A3EDF090E0A2E0C0E0A3E0C0B6
:0E070F00E090000912493DAD82AE83158115C0
:0A071D0081ED240EFDEE34E0FE74C1
:0C072700082DF582E43EF583E4F0E508BF
:0D0733002404F890E063E6F008A3E6F0E58A
:0C074000082406F8E6C0E008E6C0E074FB
:0A074C0001C0E074ABC0E07480C08F
:0D075600E0126354E58124FBF5810208E404
:0C076300C002C003C004E5082406F8E64C
:0B076F00C0E008E6C0E07401C0E074C8
:0C077A00ABC0E07480C0E0126354E58165
:0E07860024FBF581D004D003D0020BBB000190
:010794000A5A
:0E079500C002C003C00490E0A2E0C0E0A3E0F8
:0E07A300C0E090000712493DAD82AE83158183
:0C07B1001581D004D003ED2429F582EE60
:0A07BD0034E0F583E508240DF8E6AA
:0A07C700F0ED2429FDEE34E0FE8D74
:0C07D100828E83A3E5082406F8E6F0A35E
:0C07DD0008E6F08D828E83A3A3A3E5083C
:0E07E9002406F8E6F0A308E6F074062DFDE401
:0C07F7003EFE8B078D828E83EFF0E5083C
:0D0803002406F890E065E6F008A3E6F0A8F2
:0B081000080886820886830886F01224
:07081B00703790E067F090D8
:0C082200E068ECF0E5082404F88605907E
:08082E00E069EDF090E06AE5DD
:0A083600082408F8E6F090E06BE5F6
:0A084000082409F8E6F090E06CE5EA
:0C084A0008240DF8E6F090E06DEFF0E5FA
:0C08560008240DF806C003C0047406C09E
:0E086200E0E4C0E090E06775F000124A121565
:0E08700081158190E05075F00012541DD004E7
:0C087E00D003D002E508240AF8868208A6
:0C088A0086830886F0127037FD7E00E5C2
:0C089600082410F886820886830886F08B
:0E08A200127037FFC0047C00C002C003C00407
:0C08B000C005C006C007C004741AC0E0F8
:0C08BC0074ABC0E07480C0E0126354E52F
:0D08C8008124F9F581D004D003D002D004C2
:0D08D50090E0A2E02401F0A3E03400F00266
:0208E20005CB44
:0708E4001249DB850881D0F9
:0208EB000822E1
:0A08ED00C008E581F508240CF58130
:0C08F700124D9EAA82AB83ACF0A808084A
:0C090300A60208A60308A604A80808869F
:0E090F00820886830886F0127037FDBD26022E
:02091D0080094F
:06091F00BD2703020C439A
:03092500020F01BD
:0C092800A80808740126FDE40836FE084B
:0C09340086078D828E838FF0E508240A70
:0B094000F8127037F6E508240AF8E50D
:0A094B00082404F9E6F7097700E537
:0B095500082404F8E608F6187600A855
:0C0960000808740226FEE40836FF088632
:0E096C00028E828F838AF0127037FE7A00E5C9
:0C097A00082404F8EE46F6EA0846F6E50C
:0C0986000824FBF886020886030886049B
:0E09920074012AFEE43BFF8C058E828F838D5C
:0C09A000F0127037FEE5082406F8A606E9
:0C09AC00087600E5082406F8E608F618B6
:0E09B80076008A828B838CF0127037FA7B00F7
:0C09C600E5082406F8EA46F6EB0846F6C1
:0C09D200A80808740426FAE40836FB08A4
:0D09DE0086048A828B838CF0127037FAE554
:0A09EB00082408F8A602087600E5CB
:0B09F500082408F8E608F6187600A8B1
:0C0A00000808740326FCE40836FF088692
:0E0A0C00058C828F838DF0127037FC7D00E523
:0C0A1A00082408F8EC46F6ED0846F6E566
:0C0A260008240AF8860490E0A8E4F0A37D
:0A0A3200F0E5082404F8088605E545
:0A0A3C00082408F8E508240AF90868
:020A4600E6F7D1
:0C0A480090E0A8E508240BF8E0F6A3E01D
:0C0A540008F6E508240BF8C3E69403083C
:0A0A6000E6648094804003020F0159
:0C0A6A00C004C005E508240BF8E6C0E05D
:0E0A760008E6C0E090000712493DAF82AE8353
:0C0A840015811581D005D004EF2429FF56
:0C0A9000EE34E0FE8F828E83A3A3A3E06F
:0E0A9C00FEA3E0FF90E065E0FAA3E0FBEEB5FC
:080AAA000206EFB50302800310
:030AB200020C34FF
:0E0AB50090E0AA7401F0A3E4F00CC004C005A8
:0C0AC300E508240BF8E6C0E008E6C0E0FF
:0E0ACF0090000912493DAA82AB831581158162
:0B0ADD00D005D004EA240EF582EB34B3
:0A0AE800E0F583E5082404F8E6F0C9
:0A0AF200A308E6F0EA240EFAEB3444
:0A0AFC00E0FB8A828B83A3A3E508C8
:0E0B06002406F8E6F0A308E6F08A828B83A3AB
:0C0B1400A3A3A3E5082408F8E6F0A3085A
:0E0B2000E6F074062AFAE43BFB758204C0027C
:0E0B2E00C003C004C005124FEBAF82AE83D0EF
:0E0B3C0005D004D003D0028A828B83EFF0A391
:0E0B4A00EEF0C004C00590E0A8E0C0E0A3E01B
:0E0B5800C0E090000912493DAA82AB831581CE
:0C0B66001581D005D004EA240EFAEB340F
:0C0B7200E0FB74082AF582E43BF583ECFC
:0D0B7E00F090E0677426F090E068EDF0E57F
:0C0B8B00082404F8860690E069EEF09063
:0A0B9700E06AE508240AF8E6F0E53C
:0C0BA100082408F8860290E06BEAF0904F
:0E0BAD00E06CECF0C004C0057406C0E0E4C0CB
:0E0BBB00E090E06775F000124A121581158176
:0E0BC90090E0A8E0C0E0A3E0C0E090000712BA
:0C0BD700493DAA82AB8315811581EA24F8
:0A0BE30029FAEB34E0FB8A828B83D1
:0E0BED00A3E0FAA3E0FB8A0690E05FEEF08B37
:0B0BFB000290E060EAF0745FC0E0745C
:0C0C0600E0C0E0E4C0E090E03E75F000CB
:0C0C12001258D8158115811581744CC052
:0C0C1E00E074ABC0E07480C0E0126354CE
:0A0C2A00158115811581D005D00455
:0D0C340090E0A8E02401F0A3E03400F002FD
:020C41000A485F
:0C0C4300A80808740126FAE40836FB0833
:0D0C4F0086048A828B838CF0127037FAE5E0
:0A0C5C00082404F8A602087600E55B
:0B0C6600082404F8E608F6187600A841
:0C0C71000808740226FAE40836FB088626
:0E0C7D00048A828B838CF0127037FA7B00E5BC
:0C0C8B00082404F8EA46F6EB0846F6E5FB
:0C0C97000824FBF8860208860308860487
:0E0CA30074012AFDE43BFE8C078D828E838F48
:0C0CB100F0127037FDE5082406F8A605D7
:0C0CBD00087600E5082406F8E608F618A2
:0E0CC90076008A828B838CF0127037FA7B00E3
:0C0CD700E5082406F8EA46F6EB0846F6AD
:0C0CE300A80808740526FAE40836FB088F
:0E0CEF0086048A828B838CF012703790EC3171
:0C0CFD00F0A80808740626FAE40836FB8C
:0D0D09000886048A828B838CF0127037906C
:0C0D1600EC32F0A80808740726FAE40884
:0E0D220036FB0886048A828B838CF0127037B1
:0C0D3000FAE5082408F8A602087600E5A1
:0B0D3C00082408F8E608F6187600A866
:0C0D47000808740826FAE40836FB088649
:0E0D5300048A828B838CF0127037FA7B00E5E5
:0C0D6100082408F8EA46F6EB0846F69075
:0E0D6D00E0617423F0A3F090E0A6E4F0A3F0A0
:0A0D7B00E5082404F8088602E508E4
:0C0D85002406F8088603E5082408F80896
:020D91008604D6
:0E0D930090E0A6E0FDA3E0FEC3ED9403EE6445
:080DA1008094804003020F0161
:0D0DA900C004C002C003C004C005C0069015
:0E0DB600000912493DAD82AE8315811581D032
:0C0DC40004D003D002ED240EF582EE34C2
:0C0DD000E0F583E0FDA3E0FE90E061E0B0
:0E0DDC00FFA3E0FCEDB50706EEB504028004AF
:040DEA00D004804869
:0E0DEE0090EC32E0FD7E0090EC31E0FF7C00E6
:0C0DFC00C002C003C004E5082406F8E6AD
:0E0E0800C0E008E6C0E0C005C006C007C00498
:0A0E16007480C0E074ABC0E074808B
:0E0E2000C0E0126354E58124F7F581D004D0C0
:080E2E0003D002D004020EF211
:0C0E360090E0677427F090E068EAF0E5B7
:0C0E4200082404F8860690E069EEF090A9
:0C0E4E00E06AEBF0E5082406F886069048
:090E5A00E06BEEF090EC31E09049
:080E6300E06CF090EC32E0902D
:090E6B00E06DF090E06EECF0E5A2
:0C0E7400082408F8860590E06FEDF0C03F
:0D0E800002C003C0047409C0E0E4C0E090AB
:0D0E8D00E06775F000124A12158115819082
:0D0E9A00E0A6E0C0E0A3E0C0E09000091277
:0C0EA700493DAD82AE8315811581ED241C
:0A0EB3000EFDEE34E0FE8D828E830A
:0E0EBD00A3A3E0FDA3E0FE8D0790E05FEFF041
:0C0ECB008E0590E060EDF0745FC0E074F4
:0C0ED700E0C0E0E4C0E090E03E75F000F8
:0E0EE3001258D8158115811581D004D003D086
:010EF10002FE
:0D0EF20090E0A6E02401F0A3E03400F0023F
:020EFF000D9351
:070F01001249DB850881D0D5
:020F08000822BD
:0A0F0A00C008858108AA82AB83AC01
:0E0F1400F07D01127037FEA3127037FFBE0091
:060F220005BF0002800C77
:090F2800BE5606BF010302106C65
:030F31000212E9C0
:050F340090E0ACE4F0C8
:080F390090E0ACE0FEBE0300F5
:0E0F41005053C002C003C004EE75F009A4FFB7
:0A0F4F00240EF582E434E0F583E49B
:0A0F5900F0A3F0EF240EFFE434E0F3
:0E0F6300FA8F828A83A3A374FFF0A3F08F821B
:0E0F71008A83A3A3A3A3E4F0A3F074062FF5D4
:0E0F7F0082E43AF583E4F0A3F090E0ACEE04D7
:090F8D00F0D004D003D00280A3CF
:050F960090E0ACE4F066
:080F9B0090E0ACE0FEBE030093
:0E0FA3005035C002C003C004EE75F007A42450
:0A0FB10029FFE434E0FA8F828A83FE
:0E0FBB00A374FFF0A3F08F828A83A3A3A3E4A4
:0E0FC900F0A3F090E0ACEE04F0D004D003D022
:030FD7000280C1D4
:0D0FDA0090ABA475F080C002C003C00412EB
:090FE700430690ABC175F08012C5
:090FF000430690ABD875F08012A5
:070FF900430674F3C0E0742D
:0C100000AAC0E07480C0E07486C0E0E488
:0E100C00C0E090E05075F000125398E581248A
:0A101A00FBF58174F7C0E074AAC072
:0D102400E07480C0E07487C0E0E4C0E0909C
:0E103100E03E75F000125853E58124FBF58176
:0E103F00E4C0E07401C0E090E0AE75F0001275
:0C104D00220215811581D004D003D002CE
:0E1059007D008A828B838CF074561248C5A3EA
:0510670074011248C5F0
:0E106C00ED601E90E0AE75F000C002C003C043
:0E107A00041222C6E5828583F0D004D003D094
:051088000245F07006B6
:06108D007582010212FB56
:0E10930090E099E0FDA3E0FE4D70030212D143
:0E10A10090E09DE0FDA3E0FEA3E0FF74032DB0
:0E10AF00FDE43EFE8D828E838FF0127037FDC1
:0C10BD00A3127037FEC002C003C0047410
:0A10C900D8C0E07410C0E0C005C0FC
:0510D30006900004225C
:0E10D800AD82AE83D004D003D00290E09BED39
:0D10E600F0A3EEF0BDFF06BEFF030212D125
:0510F30090E0ADE4F007
:0810F80090E0ADE0FDBD030036
:0511000040030212D1C2
:0E110500C002C003C00490E09BE0FEA3E0FF28
:0E1113008E828F83C004C005125A9AAE82AF3E
:0E11210083AAF0FBD005D004C005C006C007AD
:0D112F00C002C00390000075F07074401203
:0E113C002608AA82AB83ACF0FEE58124FCF508
:0E114A0081E4C0E074E0C0E074FFC0E07444D3
:0E115800C0E08A828B838CF0EE126E2FAA828A
:0E116600AB83ACF0FEE58124FCF58190EC2D0E
:0E117400EAF0A3EBF0A3ECF0A3EEF0C002C093
:0E11820003C004C00690000075F07A74441299
:0E1190002608AA82AB83ACF0FEE58124FCF5B4
:0E119E0081D0058A828B838CF0EEC004C005E0
:0E11AC00125AA7AA82AB83D005D00490E0A00F
:0E11BA00EAF0A3EBF090E0677426F090E0639B
:0E11C800E0FCA3E090E068F090E069ECF08BB2
:0E11D6000490E06AECF090E06BEAF0ED75F04A
:0A11E40009A4240EFAE434E0FB74C1
:0E11EE00082AF582E43BF583E0FA90E06CF00D
:0E11FC00C002C003C0047406C0E0E4C0E0906E
:0E120A00E06775F000124A1215811581D004BC
:0D121800D003D00290E0ADE075F009A424F1
:0A1225000EFAE434E0FB8A828B83AA
:0E122F00A3A3E0FAA3E0FB8A0490E05FECF0DA
:0E123D008B0290E060EAF0C002C003C00474AF
:0A124B005FC0E074E0C0E0E4C0E022
:0E12550090E03E75F0001258D81581158115F5
:0A12630081745FC0E074E0C0E0E4B5
:0A126D00C0E074F3C0E074ABC0E011
:0E1277007480C0E0126354E58124FAF581D042
:0D12850004D003D00290E060E0FA7B0090FE
:0E129200E05FE0FC7D00C002C003C004C002AB
:0B12A000C003C004C0057405C0E0746A
:0C12AB00ACC0E07480C0E0126354E58128
:0E12B70024F9F581D004D003D00290E0ADE020
:0C12C5002401F0D004D003D0020210F885
:0D12D10090E0AE75F000C002C003C0041232
:0B12DE00223ED004D003D002021059C1
:0D12E9008A828B838CF0E41248C5A3E412C6
:0512F60048C5758203EC
:0312FB00D00822F6
:04AAF3003E0400001D
:04AAF700ED08000066
:06AAFB0033EC0000000036
:0EAB01005265636569766564205252455120A5
:0BAB0F0066726F6D3A2025640A0D008D
:0EAB1A0052524551207265636569766564206C
:0EAB280066726F6D20253032782E253032781F
:0EAB36002020526562726F61646361737469FE
:08AB44006E672E2E2E0A0D0093
:0EAB4C000A0D666F756E6420736F7572636517
:0EAB5A0020616464726573732073656E6469B4
:0EAB68006E67205252455020746F2073656E48
:0AAB7600646572202E2E2E0A0D00D9
:0EAB800054656D703D25642E253032752043DE
:0EAB8E002072656365697665642066726F6D7E
:08AB9C003A202564200A0D0097
:0EABA4000A0D3D3D3D3D3D3D3D3D3D3D3D3DB0
:0EABB2003D3D3D3D3D3D3D3D3D3D3D3D0A0DA2
:01ABC0000094
:0EABC1002020202020526F757465722F52657F
:09ABCF006365697665720A0D00E8
:0EABD8003D3D3D3D3D3D3D3D3D3D3D3D3D3D19
:0DABE6003D3D3D3D3D3D3D3D3D3D0A0D00E9
:0EABF3005252455020536F757263653A20250B
:04AC0100640A0D00D4
:0EAC05007072657061726564207272657020F5
:0EAC13007061636B6574206E6F772073656EE1
:0EAC210064696E6720746F20253032782E250E
:06AC2F003032780A0D002E
:04AD0E000000000041
:01AD12000040
:01AD1300003F
:09AD14000000000A0F000000001D
:0412FE0053F4FE2285
:0413020053F4FE2280
:0413060043F4012289
:03130A00D290225C
:03130D00C2902269
:07131000A290E433F58222F4
:0413170043FE01226E
:04131B0053FEFE225D
:07131F00438D01439A1022E7
:0A132600538DFEE58D7003539AEF1E
:01133000229A
:0C1331007401558DFA7B008A828B8322A8
:04133D00438C0222B9
:04134100538CFD22AA
:0C1345007401558AFA7B008A828B832297
:06135100C2EB758A0022C8
:0413570053F3EF223B
:04135B0053F3EF2237
:04135F0043F3102222
:03136300D284220F
:03136600C284221C
:07136900A284E433F58222A7
:0413700043FD102207
:0413740053FDEF2214
:0E137800438C1090E0B8E04410F043B82022FF
:0E13860090E0B8E054EFF090E0B8E0FA54F0D8
:03139400600122D3
:04139700538CEF2262
:0E139B0090E0B8E0FA5302107B008A828B8348
:0113A9002221
:0413AA00438C01224D
:0413AE00538CFE223C
:0C13B20074105589FA7B008A828B83221C
:0613BE00C2C57589002282
:0D13C400121310E582701990E0BAF5F012D6
:0B13D10044C4AA82AB83EA4BB40100C5
:0813DC00E433FA7003FA800209
:0213E4007A018C
:0913E600EA3395E08A82F58322C6
:0C13EF00AA82AB83BA8105BB0002800615
:0613FB00BA8206BB0003EC
:03140100021331A2
:041404009000002232
:0A140800C008858108AA82AB83BAF0
:071412008005BB0002800809
:08141900BA814ABB0047800EB6
:0714210012133D1212FE122E
:07142800131B900001803A44
:0B142F00E50824FCF8E60846602512E2
:0E143A001331E5828583F045F0701CC0E0C0E0
:0E144800E090E0BA75F0001244121581158193
:0814560012135112131F800351
:03145E0012132640
:05146100900001800372
:03146600900000F3
:03146900D0082286
:0D146C00121369E582701990E0BEF5F012D0
:0B14790044C4AA82AB83EA4BB401001C
:08148400E433FA7003FA800260
:02148C007A01E3
:09148E00EA3395E08A82F583221D
:0C149700AA82AB83BA8105BB000280066C
:0614A300BA8206BB000343
:0314A90002139B90
:0414AC00900000228A
:0A14B000C008858108AA82AB83BA48
:0714BA008005BB0002800861
:0814C100BA8147BB0044800B17
:0B14C900121357121374900001803AB8
:0B14D400E50824FCF8E608466025123D
:0E14DF00139BE5828583F045F0701CC0E0C0D1
:0E14ED00E090E0BE75F00012441215811581EA
:0814FB001213BE1213788003E6
:031503001213863A
:051506009000018003CC
:03150B009000004D
:03150E00D00822E0
:0C151100C020C0E0C0F0C082C083C00257
:0E151D00C003C004C005C006C007C000C00166
:0E152B00C0D075D000C2AFAAE27B00ADE3E4F1
:0E1539002AFAED3BFB90E30EEAF0A3EBF090F4
:0E154700E3247401F01213B2E5828583F045AF
:0E155500F0602F90E0BE75F0001244C4E582F5
:0E1563008583F045F0601D7420C0E0E4C0E018
:0E15710090E0BE75F0001244121581158190B5
:08157F00AC3E75F08012342728
:0E158700758900C2C590E324E0604B90E2E25B
:0E159500E0FAA3E0FBA3E0FCA3E0FDAEE27FE2
:0E15A30000A9E3E42EFEE93FFF90E30EE0F81E
:0E15B100A3E0F9EEC398FEEF99FFE4F8F9EE1F
:0E15BF002AFAEF3BFBE83CFCE93DFD90E2E23E
:0E15CD00EAF0A3EBF0A3ECF0A3EDF090E32422
:0215DB00E4F03A
:0E15DD00D2AFD0D0D001D000D007D006D005BC
:0E15EB00D004D003D002D083D082D0F0D0E064
:0315F900D02032CD
:0C15FC00C020C0E0C0F0C082C083C0026C
:0E160800C003C004C005C006C007C000C0017A
:0E161600C0D075D000C2AFAAE27B00ADE3E405
:0E1624002AFAED3BFB90E30EEAF0A3EBF09008
:0E163200E3247401F0121345E5828583F04530
:0E164000F0602F90E0BA75F0001244C4E5820D
:0E164E008583F045F0601D7420C0E0E4C0E02C
:0E165C0090E0BA75F0001244121581158190CD
:08166A00AC3575F08012342745
:0E167200758A00C2EB90E324E0604B90E2E248
:0E168000E0FAA3E0FBA3E0FCA3E0FDAEE27FF6
:0E168E0000A9E3E42EFEE93FFF90E30EE0F832
:0E169C00A3E0F9EEC398FEEF99FFE4F8F9EE33
:0E16AA002AFAEF3BFBE83CFCE93DFD90E2E252
:0E16B800EAF0A3EBF0A3ECF0A3EDF090E32436
:0216C600E4F04E
:0E16C800D2AFD0D0D001D000D007D006D005D0
:0E16D600D004D003D002D083D082D0F0D0E078
:0316E400D02032E1
:03AC350047AC80A9
:02AC3800C41343
:02AC3A000814FC
:02AC3C00EF1314
:03AC3E0050AC8097
:02AC41006C1491
:02AC4300B0144B
:02AC4500971462
:09AC4700427574746F6E20310037
:09AC5000427574746F6E2032002D
:0C16E700AA83E58290E0C2F0A3EAF022A2
:0C16F300C020C0E0C0F0C082C083C00274
:0E16FF00C003C004C005C006C007C000C00183
:0E170D00C0D075D000AAE27B00ADE3E42AFA5A
:0E171B00ED3BFB90E30EEAF0A3EBF090E3242D
:0E1729007401F0C28B90E0C2E0FAA3E0FB7CFA
:0C17370080BA0008BB0005BC0002801650
:091743007459C0E07417C0E09075
:0D174C00E0C2E0C0E0A3E0C0E085C1822261
:0E17590090E324E0604B90E2E2E0FAA3E0FBB4
:0E176700A3E0FCA3E0FDAEE27F00A9E3E42EC8
:0E177500FEE93FFF90E30EE0F8A3E0F9EEC3BB
:0E17830098FEEF99FFE4F8F9EE2AFAEF3BFB2F
:0E179100E83CFCE93DFD90E2E2EAF0A3EBF05B
:0B179F00A3ECF0A3EDF090E324E4F0D5
:0E17AA00D0D0D001D000D007D006D005D0049A
:0D17B800D003D002D083D082D0F0D0E0D09A
:0217C5002032D0
:0117C70032EF
:0C17C800AA83E58290E0C4F0A3EAF022BE
:0C17D400C020C0E0C0F0C082C083C00292
:0E17E000C003C004C005C006C007C000C001A1
:0E17EE00C0D075D000AAE27B00ADE3E42AFA79
:0E17FC00ED3BFB90E30EEAF0A3EBF090E3244C
:0E180A007401F0C28F90E0C4E0FAA3E0FB7C12
:0C18180080BA0008BB0005BC000280166E
:09182400743AC0E07418C0E090B1
:0D182D00E0C4E0C0E0A3E0C0E085F9822245
:0E183A0090E324E0604B90E2E2E0FAA3E0FBD2
:0E184800A3E0FCA3E0FDAEE27F00A9E3E42EE6
:0E185600FEE93FFF90E30EE0F8A3E0F9EEC3D9
:0E18640098FEEF99FFE4F8F9EE2AFAEF3BFB4D
:0E187200E83CFCE93DFD90E2E2EAF0A3EBF079
:0B188000A3ECF0A3EDF090E324E4F0F3
:0E188B00D0D0D001D000D007D006D005D004B8
:0D189900D003D002D083D082D0F0D0E0D0B8
:0218A6002032EE
:0118A800320D
:0A18A900C008E581F5082408F58168
:0918B300E582FA20E00302194C61
:0E18BC0090E0C6E0FB90E0C7E0FCEB6C30E093
:0E18CA001DABE27C00AEE3E4FD2BFBEE3CFC2C
:0E18D80090E310EBF0A3ECF090E3257401F028
:0218E60080641C
:0C18E80090E325E0605EC00290E2E6A8FC
:0C18F4000808E0F6A3E008F6A3E008F600
:0E190000A3E008F6ACE27D00AEE38E03E42C1B
:0E190E00FFEB3DFB90E310E0FCA3E0FDEFC318
:0C191C009CFFEB9DFB7C007D00A80808F0
:0E192800EF26FFEB0836FBEC0836FCED083628
:0E193600FD90E2E6EFF0A3EBF0A3ECF0A3EDE2
:08194400F090E325E4F0D0026D
:07194C00EA20E1030219E4A7
:0E19530090E0C6E0FB90E0C7E0FCEB6C30E1FA
:0E1961001DABE27C00AEE3E4FD2BFBEE3CFC94
:0E196F0090E312EBF0A3ECF090E3267401F08D
:02197D00806583
:0C197F0090E326E0605FC00290E2EAE521
:0C198B00082405F8E0F6A3E008F6A3E04D
:0E19970008F6A3E008F6ABE27C00AFE3E42B19
:0E19A500FBEF3CFC90E312E0FAA3E0FFEBC383
:0C19B3009AFAEC9FFFE4FBFCE508240519
:0E19BF00F8EA26FAEF0836FFEB0836FBEC08D4
:0E19CD0036FC90E2EAEAF0A3EFF0A3EBF0A301
:0919DB00ECF090E326E4F0D002E8
:0719E400EA20E203021A757C
:0E19EB0090E0C6E0FA90E0C7E0FBEA6B30E265
:0E19F9001DAAE27B00ADE3E4FC2AFAED3BFB05
:0E1A070090E314EAF0A3EBF090E3277401F0F3
:021A1500805EF1
:0A1A170090E327E0605890E2EEA88B
:0C1A21000808E0F6A3E008F6A3E008F6D1
:0E1A2D00A3E008F6AAE27B00AFE3E42AFAEF9A
:0E1A3B003BFB90E314E0FEA3E0FFEAC39EFE37
:0C1A4900EB9FFF7A007B00A80808EE2647
:0E1A5500FEEF0836FFEA0836FAEB0836FB9083
:0E1A6300E2EEEEF0A3EFF0A3EAF0A3EBF090BA
:041A7100E327E4F093
:0E1A750090E0C7E0FA90E0C6E062028A8212BA
:061A830048FA850881D03D
:021A8900082231
:091A8B001248DE90E0C7E4F0907F
:041A9400E0C6F02296
:0E1A980090E0C7E0FA90E0C6E06202EAF4FADD
:0E1AA600F582C002121AED900190125050D03D
:061AB400028A82021AED15
:031ABA000248DF00
:0D1ABD00AA8290E0C6E0FBF4FCEA5204901F
:0A1ACA00E0C6EA4BF08C820218A976
:0D1AD400AA8290E0C6E0FBEA5BFCEAF49019
:091AE100E0C65BF08C820218A93A
:031AEA00021AEDF0
:0D1AED00AA8290E0C7E06AF08A820218A980
:0E1AFA00AA82AB83EA4B6006758201021ABD18
:061B0800758201021AD4EF
:0E1B0E00AA82AB83EA4B6006758202021ABD02
:061B1C00758202021AD4DA
:0E1B2200AA82AB83EA4B6006758204021ABDEC
:061B3000758204021AD4C4
:041B360085C9C92272
:041B3A0043C9082271
:0E1B3E00740F55C944A0F5C9740F55C9445021
:031B4C00F5C922B6
:031B4F00021B3E38
:051B520075C903C2AFDC
:041B570000021B5716
:0A1B5B00C008E581F5082407F581B4
:0E1B650090E0C8E0FAA3E0FBA3E0FCEA4B4CE2
:0C1B7300700A90E0CBE4F0A3F0021CF23A
:0C1B7F001250A2AA82AB83E5082403F8F0
:0E1B8B00A60208A60390E0C8E0FCA3E0FDA3BC
:0C1B9900E0FEE5082405F8A60408A605F7
:0C1BA50008A606E5082405F886820886DC
:0E1BB100830886F0127037FFA3127037FAE532
:0C1BBF00082405F8740226FBE40836FC3C
:0E1BCB000886058B828C838DF0127037FBA389
:0C1BD900127037FCEB2FFFEC3AFAE50825
:0C1BE5002403F8EFC396FFEA0896FAA864
:0A1BF1000808A60708A602E508246C
:0E1BFB0005F8740426FCE40836FD0886068C06
:0E1C0900828D838EF0127037FCA3127037FDAF
:0C1C1700A3127037FEE5082405F8A604AF
:061C230008A60508A60654
:0C1C2900E5082405F8B6000B08B600071B
:071C350008B60003021CDEEB
:0C1C3C00E5082405F886820886830886E7
:0B1C4800F0127037FCA3127037FDE5AE
:0C1C5300082405F8740226FEE40836FFA1
:0E1C5F000886028E828F838AF0127037FAA3F5
:0C1C6D00127037FBEA2CFEEB3DFFE5088F
:0C1C79002403F8EEC396FEEF0896FFA8C7
:0C1C85000808C3EE96EF0896501BEA2CEE
:0C1C9100FCEB3DFDE5082403F8ECC396D5
:0C1C9D00FCED0896FDA80808A60408A6A7
:011CA9000535
:0C1CAA00E5082405F8740426FAE4083666
:0E1CB600FB0886048A828B838CF0127037FA4A
:0B1CC400A3127037FBA3127037FCE581
:0C1CCF00082405F8A60208A60308A604D5
:031CDB00021C29BF
:091CDE00E5082403F8A9080990A7
:0B1CE700E0CBE726F009E70836A3F089
:061CF200850881D00822E4
:0A1CF800C008E581F508240CF58111
:0E1D0200AA82AB83ACF07D01127037FEA312F3
:0B1D10007037FFBE0005BF0002800B13
:081D1B00BE5A05BF0002801E44
:031D23000220E5B6
:091D260090E0C8E4F0A3F0A3F082
:0E1D2F007D008A828B838CF0745A1248C5A303
:041D3D00E41248C59F
:091D4100ED70067582010220F725
:0A1D4A00E50824FDF8B687028003C7
:031D5400021EEF7D
:0C1D5700E50824FAF886050886060886D0
:0C1D630007E5082407F8A60508A60608F6
:021D6F00A607C5
:0E1D710090E0C8E0FDA3E0FEA3E0FFED4E4FC2
:0E1D7F00606EC002C003C00474072DFAE43E7B
:0E1D8D00FB8F048A828B838CF0127037FAA3CE
:0A1D9B00127037FBA3127037FCE54D
:0C1DA500082407F8E6B5020C08E6B503B8
:081DB1000708E6B504028008F2
:081DB900D004D003D002802EFB
:0E1DC100D004D003D00274042DFDE43EFE8D4C
:0E1DCF00828E838FF0127037FDA3127037FEE4
:0E1DDD00A3127037FF90E0C8EDF0A3EEF0A364
:041DEB00EFF0808213
:0E1DEF0090E0C8E0FDA3E0FEA3E0FFED4E4F44
:051DFD007003021D2F20
:0B1E0200A80808A60508A60608A60709
:0C1E0D00A80808740426FDE40836FE084E
:0C1E190086078D828E838FF0E508240A76
:0D1E2500F8127037F6A312703708F6A312FA
:0C1E3200703708F6E508240AF8E60846B8
:071E3E0008467003021D2F8E
:0C1E4500C002C003C004E508240AF874C1
:0E1E51000726FAE40836FB0886048A828B8393
:0D1E5F008CF0127037FAA3127037FBA3123B
:0C1E6C007037FCE5082407F8E6B5020C0E
:0C1E780008E6B5030708E6B50402800880
:081E8400D004D003D00280411C
:0C1E8C00E508240AF8740426FAE408367D
:0E1E9800FB0886048A828B838CF0127037FA66
:0E1EA600A3127037FBA3127037FC8D828E835F
:0E1EB4008FF0EA1248C5A3EB1248C5A3EC124A
:0B1EC20048C5D004D003D002021E0D62
:0E1ECD008D828E838FF0127037FDA312703756
:0C1EDB00FEA3127037FFA80808A6050837
:081EE700A60608A607021E0D65
:0A1EEF00E50824FDF8B68202800326
:031EF900021D2F98
:0C1EFC00E5082404F8E4F608F608760077
:0C1F080090E0C8E0FDA3E0FEA3E0FFA80D
:0A1F14000808A60508A60608A6079F
:0C1F1E00A80808B6000B08B6000708B6BB
:051F2A000003021D2F61
:0C1F2F00A8080886820886830886F0C097
:0E1F3B0002C003C0041244C4E5828583F0D0C6
:0C1F490004D003D00245F070030220A376
:0C1F5500C002C003C004A80808740726DE
:0E1F6100FDE40836FE0886078D828E838FF021
:0B1F6F00127037FAA3127037FBA312A8
:0C1F7A007037FCC004C005C006C007A8FA
:0C1F86000808E6C0E008E6C0E008E6C07D
:0E1F9200E07488C0E08A828B838CF01231D517
:0E1FA000AA82AB83E58124FCF581D007D00630
:0E1FAE00D005D004EA4BD004D003D00260036B
:031FBC000220946C
:0D1FBF008D828E838FF0E41248C5A3E412DA
:081FCC0048C5A3E41248C5E575
:0C1FD400082404F8E6084608466054C0E3
:0C1FE00002C003C004E5082404F87404E7
:0C1FEC0026FDE40836FE088607A8080859
:0E1FF800740426FAE40836FB0886048A828BFD
:0E200600838CF0127037FAA3127037FBA3120E
:0E2014007037FC8D828E838FF0EA1248C5A3D0
:0E202200EB1248C5A3EC1248C5D004D003D081
:0320300002802DFE
:0C203300A80808740426FDE40836FE0826
:0E203F0086078D828E838FF0127037FDA312FC
:09204D007037FEA3127037FF90FA
:0A205600E0C8EDF0A3EEF0A3EFF0F8
:0C206000A80808740426FDE40836FE08F9
:0E206C0086078D828E838FF0E41248C5A3E4B0
:0E207A001248C5A3E41248C5C002C003C0044A
:0C208800121B5BD004D003D002021EFC2F
:0E209400C002C003C0041220FDD004D003D04F
:0120A200023B
:0A20A300A80808E5082404F9E6F790
:0C20AD000809E6F70809E6F7A80808741F
:0E20B9000426FDE40836FE0886078D828E831D
:0D20C7008FF0127037FDA3127037FEA312C8
:0C20D4007037FFA80808A60508A606083B
:0520E000A607021F1E0F
:0D20E5008A828B838CF0E41248C5A3E412BC
:0520F20048C5758203E2
:0620F700850881D00822DB
:0920FD0090EC3C75F0000232A0E9
:0A210600C008858108C082C083C0B4
:0C211000F01220FDA80808740726FDE46A
:0D211C000836FE0886078D828E838FF01234
:0A2129007037FAA3127037FBA312FF
:0E2133007037FCEA4B4C606290E0C8E0FAA303
:05214100E0FBA3E0FC3F
:0B214600BA0008BB0005BC0002804C82
:0C215100A80808E6B5020C08E6B5030774
:07215D0008E6B50402800250
:022164008006F3
:06216600121B5B0221FCCC
:0E216C00C005C006C00774042AFDE43BFE8CCB
:0D217A00078D828E838FF0127037FDA31247
:0E2187007037FEA3127037FF8D028E038F0497
:08219500D007D006D00580A997
:0E219D0090EC5DE0FAA3E0FBA3E0FC8D828EE7
:0E21AB00838FF0EA1248C5A3EB1248C5A3ECDF
:0C21B9001248C5A80808740426FAE408BF
:0E21C50036FB08860490E0C8E0FDA3E0FEA310
:0E21D300E0FF8A828B838CF0ED1248C5A3EEEC
:0921E1001248C5A3EF1248C5A87D
:0C21EA00080890E0C8E6F008A3E6F00842
:0621F600A3E6F0121B5BE2
:0621FC00850881D00822D5
:0A220200C008858108AA82AB83ACF6
:0C220C00F0C002C003C004E50824FCF888
:0E221800E6C0E008E6C0E08A828B838CF012FC
:0E222600441215811581D004D003D0028A82A3
:0A2234008B838CF0122106D00822E3
:0D223E00AA82AB83ACF0C002C003C0041242
:0E224B004460D004D003D0028A828B838CF0D2
:0322590002210659
:0D225C00AA82AB83ACF0C002C003C0041224
:0E226900449CD004D003D0028A828B838CF078
:032277000221063B
:0A227A00C008858108C082C083C03F
:0C228400F0A8080886820886830886F00F
:0A229000127037FDA3127037FEE54F
:0C229A000824FCF88607088602EF2DFDE2
:0C22A600EA3EFEA808088682088683082D
:0C22B20086F0ED1248C5A3EE1248C512DC
:0622BE001B5B850881D0C6
:0222C4000822EE
:0E22C600AA82AB83ACF074072AFAE43BFB8AD1
:0E22D400828B838CF0127037FAA3127037FBE6
:0E22E200A3127037FCE4BA0007BB0004BC0076
:0222F0000104E7
:0922F200FA3395E08A82F583229B
:0E22FB00AA82AB83ACF0127037FDA3127037CD
:0E230900FE74022AFAE43BFB8A828B838CF07E
:0E231700127037FAA3127037FBEA2DFDEB3E71
:052325008D82F583220A
:0D232A00127037FAA31270378A82F58322F1
:0E23370090E0C8E0FAA3E0FBA3E0FCE4BA00EB
:0823450007BB0004BC00010409
:04234D00FAB40100DD
:0A235100E433FA7B008A828B8322BA
:0D235B00122337E5828583F045F0600A907B
:09236800E0CBE0FAA3E0FB8004E5
:042371007A007B0073
:052375008A828B832227
:0A237A00C008858108C082C083C03E
:0D238400F090E0C8E0FDA3E0FEA3E0FFA89C
:0C2391000808E6B5050C08E6B5060708CC
:06239D00E6B50702800214
:0223A300802E8A
:0E23A50074042DFAE43EFB8F048A828B838C35
:0C23B300F0127037FAA3127037FBA3126F
:0E23BF007037FC90E0C8EAF0A3EBF0A3ECF05E
:0623CD00121B5B02245B01
:0B23D300BD0008BE0005BF00028038FE
:0E23DE0074042DFAE43EFB8F048A828B838CFC
:0C23EC00F0127037FAA3127037FBA31236
:0C23F8007037FCA80808E6B5020C08E6E7
:0A240400B5030708E6B504028008DE
:08240E008A058B068C0780BDD6
:0D241600ED4E4F604074042DFDE43EFEA825
:0C2423000808740426FAE40836FB08865A
:0D242F00048A828B838CF0127037FAA3129E
:0E243C007037FBA3127037FC8D828E838FF0F9
:0C244A00EA1248C5A3EB1248C5A3EC122F
:0524560048C5121B5BEC
:0C245B00A80808740426FAE40836FB0800
:0E24670086048A828B838CF0E41248C5A3E4BD
:092475001248C5A3E41248C5A8F1
:0C247E000808740726FAE40836FB0886FC
:0E248A00048A828B838CF0E41248C5A3E4120E
:0824980048C5A3E41248C58504
:0524A0000881D00822B4
:09AD1D00000000F81C0000000019
:0924A5001233DBAA82AB83ACF018
:0E24AE00EA4B4C605E74052AFDE43BFE8C0791
:0E24BC008D828E838FF0127037FDA312703761
:0E24CA00FEC002C003C004C005C0067401C0FD
:0A24D800E0E4C0E074ECC0E07424FE
:0A24E200C0E0C005C0069000812292
:0E24EC0015811581D006D005D004D003D00292
:0E24FA008A828B838CF01233EDAD82AE83AFFD
:09250800F08D028E038F04809D0A
:0E251100AAE27B00ADE37C00EC2AFAED3BFB76
:0E251F0090E31EEAF0A3EBF090E32C7401F0C1
:01252D00228B
:0A252E00C008E581F5082404F581DA
:092538001233DBAA82AB83ACF084
:0E254100EA4B4C605C74052AFDE43BFE8C07FF
:0E254F008D828E838FF0127037FDA3127037CD
:0E255D00FEC002C003C004C005C006E4C0E01A
:0A256B00C0E0747DC0E07425C0E0FC
:08257500C005C00690008122A0
:0E257D0015811581D006D005D004D003D00200
:0E258B008A828B838CF01233EDAD82AE83AF6B
:09259900F08D028E038F04809F77
:0A25A20090E32CE0605A90E302A8D9
:0C25AC000808E0F6A3E008F6A3E008F63B
:0E25B800A3E008F6AAE27B00AFE37E00EE2A65
:0E25C600FAEF3BFB90E31EE0FEA3E0FFEAC34A
:0C25D4009EFEEB9FFF7A007B00A8080829
:0E25E000EE26FEEF0836FFEA0836FAEB083664
:0E25EE00FB90E302EEF0A3EFF0A3EAF0A3EB04
:0625FC00F090E32CE4F076
:06260200850881D00822CA
:03AD2600CEAC8030
:03AD290035AC80C6
:06AD2C003EAC80000000B7
:06260800122827BC0003AC
:03260E000262E481
:08261100EF60FA30D502B2D1EE
:08261900E583B4FF030262FA3D
:08262100E582B4FF030262FA36
:0B262900258340072482400B0262E47E
:0826340024831450030262FA32
:0E263C00F582EA8DF0A4A8F0EA8EF0A428F84A
:0E264A00E435F0F9EB8DF0A428E935F0F9E461
:0E26580033CA8FF0A429F9EA35F0FAEBF88EB8
:0E266600F0A429F9EA35F0FAE433FBEC8DF02C
:0E267400A429F9EA35F0FAE43BFBE88FF0A464
:0E2682002AFAEB35F0FBE433CCFD8EF0A42AEF
:0E269000FAEB35F0FBE43CFCED8FF0A42BFBE5
:0A269E00EC35F0FC20E70312330EC8
:0326A8000262C308
:0326AB00023F7C6F
:0A26AE00C00885810805810581AA96
:0C26B80082AB83ACF0A80808E4F608F63A
:0E26C40090E0D1E0FFA3E0FDA3E0FEEF4D4E5D
:0A26D2007008A808087601087600D9
:0E26DC0074022AFDE43BFE8C078D828E838FF4
:0C26EA00F0E50824F8F8E61248C5A30843
:0E26F600E61248C574042AFDE43BFE8C078DF5
:0C270400828E838FF0E50824F5F8E612C1
:0C27100048C5A308E61248C5A308E6125D
:0C271C0048C58A828B838CF0E50824FC01
:0C272800F8E61248C5A308E61248C59068
:0C273400E0D1EAF0A3EBF0A3ECF0A80861
:0C27400008B6011108B6000DE50824FCE5
:09274C00F88682088683123F958D
:09275500900000850881D00822E3
:0A275E00C00885810805810581058A
:0E2768008190E0D1E0FAA3E0FBA3E0FCEA4B95
:062776004C700302282153
:0C277C00A80808A60208A60308A60490FE
:0C278800E0D1E4F0A3F0A3F0A80808746E
:0E2794000226FDE40836FE0886078D828E833D
:0C27A2008FF0127037FDA3127037FEA8F4
:0C27AE000808740426FFE40836FA0886C8
:0D27BA00038F828A838BF0127037FFA31209
:0E27C7007037FAA3127037FBC005C006C007BA
:0A27D500C002C00374F1C0E07427D5
:0C27DF00C0E0C005C006A80808868208FB
:0627EB0086830886F0223F
:0E27F100158115811581D006D00590E0D1E04C
:0E27FF00FAA3E0FBA3E0FCEA4B4C60168A82D2
:0E280D008B838CF0127037FAA3127037FB8A9F
:06281B00828B83123F9541
:06282100850881D00822A9
:0D282700AA82AB83A2F73392D16002D2F7F0
:0E283400F582ACF0E58124F9F8E6FD08E6FE39
:0E2842000886F008E6A2F73392D56002D2F7BE
:05285000F583AFF0224A
:0D28550043FE0A43FD0443F3E075820E02CA
:022862002864E8
:0C286400AA827B01C0E0C0A8C2AF7C00CB
:03287000BC0800A1
:0E2873005025EB5AFDEC6010ED600D8CF00569
:04288100F0ED8002F4
:02288500C3137B
:04288700D5F0FBFD90
:0E288B00ED24FF9282D293C293EB2BFB0C80C4
:01289900D668
:0E289A00D291C291D0E053E080E5E042A8D098
:0728A800E090E0D4EAF02209
:0728AF0090E0D4E0F5822265
:0600B400E478FFF6D8FD20
:05010A0090E15CE4F04F
:0E28B600AA8290E15CE0FB701DC00290E0D5AC
:0E28C40075F0001254D5AB82AC831581EB4C3D
:0A28D200702590E15C7401F0801D98
:0E28DC00BA0D1AC00290E0D575F0001254D566
:0E28EA00AA82AB831581EA4B600590E15CE4A5
:0128F800F0EF
:0D28F90090EC5175F0001232A09000012209
:0A290600C008858108AA82AB83ACEB
:0E291000F07D01127037FEA3127037FFBE007B
:06291E0005BF0002801459
:08292400BE6605BF00028059E8
:09292C00BE7506BF0003022A1E5D
:03293500022A3142
:0E293800C002C003C004122A7BE582D004D086
:0E29460003D00290E15BF090E1DDE4F0A3F03D
:0D29540090E0D575F000C002C003C0041271
:0E29610055E2AE82AF83D004D003D002BEFF99
:0E296F001EBFFF1B7D008A828B838CF0746676
:08297D001248C5A3E41248C58D
:09298500ED70CC758201022A43B9
:0E298E00C002C003C00490E1DFEEF0A3E4F04D
:0B299C00C002C003C00474DFC0E07480
:0C29A700E1C0E0E4C0E090E15BE0C0E0D3
:0E29B30090000075F0001231D5E58124FCF58E
:0E29C10081D004D003D00290EC5DE0FEA3E0D4
:0E29CF00FFA3E0FAC004E4C0E0C0E0C0E07482
:0E29DD0085C0E08E828F838AF01231D5AA82E7
:0E29EB00AB83E58124FCF581D004BA0005BB66
:0429F900000280094F
:0929FD00D004D003D002022954D9
:0E2A0600D004D003D0027D008A828B838CF036
:0A2A140074751248C5A3E41248C50A
:0C2A1E00ED600BE50824FDF8B68503020E
:022A2A0029542D
:052A2C0075820180121B
:0D2A31008A828B838CF0E41248C5A3E41266
:052A3E0048C57582038C
:032A4300D0082296
:0A2A46007480C0E074DBC0E074E0AF
:0E2A5000C0E0E4C0E090E0D575F000125456EE
:0E2A5E00E58124FCF581E4C0E0C0E0C0E0901A
:0E2A6C00EC5175F000122A8815811581158134
:012A7A002239
:09AD3200000000062900000000E9
:0D2A7B0090E1E1E0FA90E1E104F08A8222AE
:0A2A8800C008858108C082C083C029
:0E2A9200F090EC5AE0FDA3E0FEA3E0FF8D0201
:042AA0008E038F040E
:0C2AA400A80808E6B5020C08E6B5030718
:072AB00008E6B504028021D5
:0B2AB700BA0008BB0005BC000280163E
:0E2AC2008A828B838CF0127037FAA312703761
:082AD000FBA3127037FC80CC5F
:0C2AD800A80808E6B5020C08E6B50307E4
:072AE40008E6B504028002C0
:022AEB00800366
:032AED00022B7742
:0C2AF000A8080886820886830886F0ED9E
:0B2AFC001248C5A3EE1248C5A3EF125C
:062B070048C5A808089073
:0D2B0D00EC5AE6F008A3E6F008A3E6F0A8F5
:0C2B1A000808740726FAE40836FB088659
:0D2B2600048A828B838CF074011248C5A8CC
:0C2B33000808740526FAE40836FB088642
:0E2B3F00048A828B838CF0E41248C5A3E41252
:0C2B4D0048C5E50824FBF8E6C0E008E6F7
:0C2B5900C0E008E6C0E07481C0E0A808FD
:0E2B65000886820886830886F0123249E581D0
:042B730024FCF581C8
:062B7700850881D0082250
:0A2B7D00C008858108C082C083C033
:0E2B8700F0E5812409F58190EC5DE0FDA3E00E
:0C2B9500FEA3E0FFE5082407F8A60508F1
:0C2BA100A60608A607A808088682088679
:0E2BAD00830886F01232E4E5828583F045F05D
:052BBB007003022D0370
:0C2BC000A80808740726FDE40836FE088B
:0D2BCC0086078D828E838FF0E41248C5903D
:0C2BD900EC5AE0FDA3E0FEA3E0FFE508DD
:0B2BE5002404F8A60508A60608A607B1
:0C2BF000E5082404F8B6000A08B6000648
:062BFC0008B6000280692A
:0A2C0200A80808E5082404F986F08C
:0E2C0C00E7B5F0120886F009E7B5F00A088671
:082C1A00F009E7B5F002802883
:0C2C2200A80808E6C0E008E6C0E008E6EC
:0C2C2E00C0E07487C0E0E5082404F886CC
:0E2C3A00820886830886F0122DF8E58124FCBE
:022C4800F58114
:0C2C4A00E5082404F886820886830886CA
:0E2C5600F01270371818F6A312703708F6A3A4
:072C640012703708F68085AD
:0C2C6B00A80808740326FDE40836FE08E3
:0E2C770086078D828E838FF0127037FAA312BB
:0E2C85007037FB8A058B067F80BD0008BE00FD
:062C930005BF0002806A8B
:0A2C9900A80808E50824FBF986F0FE
:0E2CA300E7B5F0120886F009E7B5F00A0886DA
:082CB100F009E7B5F002804ACA
:0C2CB900A8080890EC5DE6F008A3E6F027
:0C2CC50008A3E6F0A80808740526FDE44A
:0E2CD1000836FE088607C002C003E4C0E0C05B
:0C2CDF00E0C0E07483C0E074F9C0E07451
:0C2CEB002CC0E0C002C0038D828E838FDD
:022CF700F022C9
:0A2CF900E58124FCF581D003D00230
:0C2D030090EC5AE0FAA3E0FBA3E0FCA86F
:0C2D0F000808E6B5020C08E6B50307084A
:062D1B00E6B5040280028F
:022D210080220E
:0E2D23008A828B838CF0127037FDA3127037FA
:0E2D3100FEA3127037FF90EC5AEDF0A3EEF007
:062D3F00A3EFF0022DE0FD
:0C2D45008A058B068C07E5082404F8A61C
:072D51000508A60608A6070D
:0C2D5800E5082404F8B6000A08B60006DE
:062D640008B600028076B3
:0C2D6A00E5082404F886820886830886A9
:0C2D7600F0127037FDA3127037FEA3129C
:0C2D82007037FFA80808E6B5050C08E64D
:0A2D8E00B5060708E6B5070280024B
:022D9800803683
:0C2D9A00A8080886820886830886F012CC
:0A2DA6007037FAA3127037FBA31276
:0C2DB0007037FCE5082404F886820886D1
:0E2DBC00830886F0EA1248C5A3EB1248C5A3AF
:062DCA00EC1248C5801068
:0C2DD000E5082404F8A60508A60608A6DD
:042DDC0007022D5865
:0C2DE000E5082407F890EC5DE6F008A37D
:0A2DEC00E6F008A3E6F0850881D0A8
:022DF6000822B1
:0A2DF800C008858108C082C083C0B6
:0C2E0200F0A80808740726FDE40836FE5E
:0E2E0E000886078D828E838FF0127037FA20AF
:052E1C00E003022F2C71
:0C2E2100C005C006C007A80808740326FE
:0E2E2D00FAE40836FB0886048A828B838CF058
:0E2E3B00127037FAA3127037FB8A048B057EE3
:0E2E490080BC000FBD000CBE0009D007D006F3
:052E5700D005022F2C44
:0C2E5C00D007D006D005A8080890EC5D57
:0E2E6800E6F008A3E6F008A3E6F08D828E8364
:0E2E76008FF074021248C5C005C006C007A840
:0C2E84000808740526FCE40836FD0886EA
:0C2E900006C003C005C006C007E508240A
:0E2E9C00FAF8E6C0E008E6C0E008E6C0E0E5AF
:0A2EAA000824FDF8E6C0E074C4C07F
:0C2EB400E0742EC0E0C002C0038C828DD0
:042EC000838EF022EB
:0E2EC400AA82E58124FCF581D007D006D00556
:0E2ED200D003EA3395E0FBBA020BBB0008D038
:072EE00007D006D0058016A3
:0E2EE700D007D006D005BA0305BB0002800854
:082EF500E50824FDF8B6832472
:0C2EFD00A80808E6C0E008E6C0E008E60F
:0C2F0900C0E0A8080886820886830886BD
:0C2F1500F0122B7D158115811581800BB9
:0B2F21008D828E838FF074011248C572
:062F2C00850881D0082297
:0E2F3200AA82AB83ACF090EC5DE0C0E0A3E0BF
:0D2F4000C0E0A3E0C0E08A828B838CF01219
:092F4D002B7D15811581158122EF
:0C2F560090E1E1748AF090E1E3E4F09077
:0C2F6200E1E2F090EC5AF0A3F0A3F09034
:092F6E00EC5DE4F0A3F0A3F022F5
:0A2F7700C008858108058105810569
:0E2F81008190E2C4E4F090EC5AE0FAA3E0FB89
:0C2F8F00A3E0FCA80808A60208A603089E
:022F9B00A6048A
:0C2F9D00A80808B6000B08B6000708B62C
:052FA9000003023029C5
:0C2FAE00A80808740826FDE40836FE0898
:0E2FBA0086078D828E838FF01270376042A8DA
:0C2FC8000808740726FAE40836FB0886A7
:0E2FD400048A828B838CF074011248C58D82B2
:0E2FE2008E838FF0E41248C5E4C0E0C0E0C06A
:0C2FF000E07482C0E0A808088682088611
:0D2FFC00830886F0122DF8E58124FCF58194
:0C300900A8080886820886830886F0125A
:0D30150070371818F6A312703708F6A312D2
:07302200703708F6022F9D34
:06302900850881D0082299
:08302F0090E1E2E0FA700122D9
:0C30370090E1E3E0FB75F007A4FC24E44A
:0C304300F582E434E1F583E090E2C5F092
:0A304F00EC24E4FCE434E1FD8C8283
:0E3059008D83A3E0FEA3E0FFA3E0F890E2C6A3
:0E306700EEF0A3EFF0A3E8F08C828D83A3A31C
:0E307500A3A3E0FCA3E0FDA3E0FE90E2C9EC03
:0E308300F0A3EDF0A3EEF07C000BBB00010CFF
:0E309100C0027420C0E0E4C0E08B828C831289
:0E309F007053AB8215811581D00290E1E3EBF6
:0E30AD00F0EA1490E1E2F090E2C9E0FAA3E04C
:0E30BB00FBA3E0FCBA0008BB0005BC000280CD
:0130C9000303
:0330CA0002315C74
:0E30CD0090EC5AE0FDA3E0FEA3E0FF90E2CC01
:0830DB00EDF0A3EEF0A3EFF00D
:0E30E30090E2CCE0FDA3E0FEA3E0FFBD0007FD
:0730F100BE0004BF00012234
:0A30F80090E2C4E0FD6003122F77A0
:0E31020090E2CCE0FDA3E0FEA3E0FF90E2C669
:0E311000E0C0E0A3E0C0E0A3E0C0E090E2C5B4
:0E311E00E0C0E08D828E838FF0122DF8E581E7
:0E312C0024FCF58190E2CCE0FDA3E0FEA3E0E0
:0D313A00FF8D828E838FF0127037FDA3127F
:093147007037FEA3127037FF90EF
:0C315000E2CCEDF0A3EEF0A3EFF08087DE
:0E315C0090E2C5E0FDBD811474072AFEE43B3D
:0E316A00FF8C008E828F8388F074011248C59E
:0E31780090E2C6E0C0E0A3E0C0E0A3E0C0E04B
:0E318600C0058A828B838CF0122DF8E581241F
:04319400FCF58122A3
:0A31980090E2C4E0FA6003122F7702
:0B31A20012302F90E1E2E0FA7B009079
:0E31AD00E2C4E0FC7D00EC2AFAED3B8A82F5DC
:0231BB0083226D
:0E31BD0090E1E2E0FA7B0090E2C4E0FC7D00CD
:0A31CB00EC2AFAED3B8A82F583221C
:0A31D500C008858108AA82AB83AC14
:0E31DF00F090E1E2E0FDBD2005900001805976
:0E31ED0090E1E3E0FEED2E541FFE90E2CFF0E5
:0C31FB00EE75F007A4FE24E4F582E43435
:0A320700E1F583E50824FDF8E6F088
:0A321100EE24E4FEE434E1FF8E82B7
:0C321B008F83A3E50824FAF8E6F0A3086E
:0E322700E6F0A308E6F08E828F83A3A3A3A394
:0E323500EAF0A3EBF0A3ECF090E1E2ED04F080
:03324300900000F8
:03324600D008228B
:0A324900C008858108AA82AB83AC9F
:0E325300F090EC5DE0FDA3E0FEA3E0FFC005FF
:0C326100C006C007E50824FAF8E6C0E04B
:0C326D0008E6C0E008E6C0E0E50824FD2B
:0E327900F8E6C0E08A828B838CF0122DF8E517
:0E3287008124FCF581D007D006D00590EC5DC7
:0B329500EDF0A3EEF0A3EFF0D0082254
:0E32A000AA82AB83ACF0BA0007BB0004BC00EE
:0232AE000122FB
:0E32B00074072AFDE43BFE8C078D828E838F0F
:0A32BE00F0127037FDBD010280031D
:0332C800BD02182C
:0E32CB0074082AFAE43BFB8A828B838CF07431
:0A32D900011248C590E2C47401F030
:0132E30022C8
:0E32E400AA82AB83ACF074072AFAE43BFB8AA3
:0E32F200828B838CF0127037FAE4BA0001046C
:04330000FAB401001A
:0A330400E433FA7B008A828B8322F7
:03AD3B0000000015
:03AD3E0000000012
:02330E00780441
:0E331000EC700DC9CACBFCE58224F8F582D81A
:02331E00F1229A
:02332000782013
:0E33220020E7111582C3E933F9EA33FAEB33E1
:06333000FBEC33FCD8ECBD
:013336002274
:0A333700C008858108C082C083C071
:0C334100F005810581E4FDFEE508240490
:09334D00F8E4F608F67B007C00B0
:0C335600C005C00690E2D1E0FD7E00E55D
:0C336200082404F8C3E69D08E664808E91
:0E336E00F063F08095F0D006D0055057C005F2
:0A337C00C006EB2445F582EC34ECAA
:0C338600F583E0FDA3E0FEA3E0FAA80838
:0E33920008E6B5050C08E6B5060708E6B50224
:0333A000028006A2
:0633A300D006D005800AEF
:0A33A900D006D0058D828E838022AD
:0C33B30074032BFBE43CFCE5082404F848
:0633BF0006B6000208063C
:0C33C500E5082404F886050886068085CB
:0433D1008D828E83D8
:0633D500850881D00822EA
:0E33DB0090EC45E0FAA3E0FBA3E0FC8A828BB5
:0433E900838CF022BF
:0E33ED00123337E5828583F02401FAE435F0CF
:0E33FB00FBC002C00390000312493DAA82AB42
:0C3409008315811581EA2445F582EB341F
:0C341500ECF583E0FAA3E0FBA3E0FC8AE6
:06342100828B838CF02277
:0C342700123337AA82AB83EA24CDFAEB03
:0C34330034E0FB8A828B83E0FC430480C1
:0D343F008A828B83ECF090EC6075F0000247
:02344C0032A0AC
:0A344E00C008858108C082C083C059
:0C345800F0E5812408F581A808088682B0
:0C3464000886830886F0126DFFC8E5089A
:0E3470002404C8A68208A6837F007D007E008B
:02347E007A00D2
:0E34800090E2D1E0FB7C00C3EF9BED64808CFA
:0B348E00F063F08095F0400302353C35
:0B349900C007C005EE2445F582EA34B0
:0C34A400ECF583E0FBA3E0FCA3E0FD8B53
:0E34B000828C838DF0127037FBA3127037FCF4
:0E34BE00A3127037FDC002C005C006C007E5AE
:0C34CC00082404F8E6C0E008E6C0E0C0F8
:0C34D80003C004C005A80808868208860E
:0E34E400830886F01259D4AB82AC83E58124B4
:0E34F200FBF581D007D006D005D002D005D062
:0C35000007EB4C7028EE2445F582EA34FD
:0A350C00ECF583E5082406F8E0F66C
:0C351600A3E008F6A3E008F6E508240690
:0B352200F886820886830886F080157A
:0C352D0074032EFEE43AFA0FBF00010DFB
:03353900023480D9
:06353C0090000075F00094
:06354200850881D008227B
:0A354800C008858108058105810592
:0E35520081AA82AB83ACF07D01127037FEA31C
:0C356000127037FFBE0005BF000280158E
:09356C00BE7806BF0003023670B0
:09357500BE7F06BF0003023745CA
:03357E000237A869
:0E358100C002C003C004122A7BE582D004D031
:0E358F0003D00290E2D0F090E2D2E4F0A3F07C
:0E359D00C002C003C00490E2D2E0FEA3E0FF33
:0E35AB00C004C006C007C006C007900003128F
:0E35B900493DAA82AB8315811581D007D0064B
:0A35C700D004EA2445F582EB34EC51
:0C35D100F583A80808E0F6A3E008F6A3C4
:0C35DD00E008F6A80808B6001008B600C8
:0D35E9000C08B60008D004D003D0028063A7
:0A35F600EE24CDF582EF34E0F583FA
:0C360000E4F0A80808740526FAE4083677
:0E360C00FB0886048A828B838CF0127037FADA
:0E361A00A3127037FBC002C003C004E4C0E07E
:0A362800C0E0743AC0E07436C0E060
:08363200C002C00390008022D9
:0E363A0015811581D004D003D00290E2D2E0B9
:0E3648002401F0A3E03400F0D004D003D0023F
:0336560002359D9D
:0536590090E2D1EEF04B
:0E365E007D008A828B838CF074781248C5A39D
:04366C00E41248C557
:09367000ED70067582010237BA03
:0E36790090E2D4E4F0A3F090E2D2E4F0A3F0EB
:0E368700C002C003C00490E2D2E0FEA3E0FF48
:0E36950090E2D1E0FA7B00C3EE9AEF64808BE6
:0E36A300F063F08095F0D004D003D002400315
:0336B10002379746
:0C36B400C002C003C004EE24CDF582EF7C
:0C36C00034E0F583E0D004D003D00220F9
:0536CC00E7030237884E
:0E36D100C002C003C004C002C003C004C00693
:0E36DF00C00790000312493DAE82AF831581F3
:0C36ED001581D004D003D002EE2445F576
:0C36F90082EF34ECF583E0FEA3E0FFA3B9
:0E370500E0FAC004C006C007C00290E2D0E0A7
:0E371300C0E090000075F0001231D5AA82AB24
:0E37210083E58124FCF581D004EA4BD004D06E
:0E372F0003D0027029FD8A828B838CF0747F98
:08373D001248C5A3E41248C5BF
:0C374500ED601090E2D0E0FDE50824FDEE
:07375100F8E6B50502800552
:05375800758201805D97
:0C375D0090E2D2E0FDA3E0FEED24CDFDE3
:0C376900EE34E0FE8D828E83E0FF5307FB
:0E3775007F8D828E83EFF090E2D4E02401F08D
:05378300A3E03400F09A
:0D37880090E2D2E02401F0A3E03400F00252
:02379500368775
:0E37970090E2D4E0FDA3E0FE4D60030236791F
:0337A50002365E8B
:0D37A8008A828B838CF0E41248C5A3E412E2
:0537B50048C575820308
:0637BA00850881D0082201
:09AD41000000004835000000008C
:0E37C0007582E612456E7582E612456E53E97B
:0237CE00DF22F8
:0737D000AA82BA0102802069
:0537D700BA0202800AA5
:0537DC00BA03028005A4
:0537E100BA053580224D
:0E37E60090DF02E04410F090DF03E0FA54EFB1
:0337F400F0803131
:0E37F70090DF02E04418F090DF03E0FA441087
:03380500F0802030
:0E38080090DF02E04408F090DF03E0FA54EF96
:03381600F0800F30
:0E38190090DF02E054E7F090DF03E0FA54EF96
:01382700F0B0
:043828007582012282
:0A382C00C008858108C082C083C077
:01383600F0A1
:0E38370090DF62E0FD20E4F890E2D7E0FD3083
:07384500E60590FFFF805033
:07384C00ED20E703123DB37C
:0C3853007582E712456EE50824FCF8863B
:08385F000574022DF5D97D006E
:0C3867008D067F00E50824FCF8C3EE96F7
:0C387300EF0896501BA80808ED26FEE4A4
:0D387F000836FF0886028E828F838AF012C1
:07388C007037F5D90D80D45F
:0938930075D90075D90090000000
:06389C00850881D008221E
:0838A20090DF62E090000022BB
:0E38AA0090DF62E0FA5302047B008A828B8377
:0138B80022ED
:0B38B90090EC69E0FA6004900000222F
:0838C40090DF17E0FA54F7F061
:0D38CC0090DF17E0FA530210BA010280F3FA
:0838D900E5E930E7FB53BEFBFB
:0E38E100E5BE30E6FB90E2D7E4F090DF5474D1
:0E38EF0001F090DF027402F090DF0374E2F04B
:0E38FD0090DF047430F090DF05E4F090DF0CF3
:0D390B007432F090DF0D74F5F07582121229
:0C3918003D027582E712456E7582E612D2
:0E392400456EE4C0E0C0E0C0E0E4C0E0C0E0FA
:0E39320090FFFF123E7DE58124FBF58175823A
:0E394000001237D075912053E9DF539BFC90A5
:09394E00EC697401F09000012203
:0A395700C008E581F5082408F58199
:0E396100E4C0E0758200123EEFAA82AB83152F
:0E396F0081BA0132BB002F90E58DE0FAA3E093
:0E397D00FBA3E0FCA3E0FD0ABA00090BBB00AF
:06398B00050CBC00010D5B
:0E39910090E58DEAF0A3EBF0A3ECF0A3EDF0CF
:06399F00900002023B480B
:0E39A50090DF62E0FA30E12F90E58DE0FAA3AA
:0E39B300E0FBA3E0FCA3E0FD0ABA00090BBB99
:0739C10000050CBC00010D24
:0E39C80090E58DEAF0A3EBF0A3ECF0A3EDF098
:0639D600900002023B48D4
:0A39DC0090E329E0605890E2F6A89D
:0C39E6000808E0F6A3E008F6A3E008F6ED
:0E39F200A3E008F6AAE27B00AFE3E42AFAEFB6
:0E3A00003BFB90E318E0FEA3E0FFEAC39EFE4E
:0C3A0E00EB9FFF7A007B00A80808EE2662
:0E3A1A00FEEF0836FFEA0836FAEB0836FB909E
:0E3A2800E2F6EEF0A3EFF0A3EAF0A3EBF090CD
:043A3600E329E4F0AC
:0D3A3A00AAE27B00ADE3E42AFAED3BFB902D
:0E3A4700E316EAF0A3EBF090E3287401F075AB
:073A550082E312456E7A00C6
:0E3A5C0090DF62E0FB20E4148A030ABB030043
:0E3A6A00500C90000AC002125050D00280E4AE
:0E3A780090DF62E0FA20E40C7582E712456EE2
:063A86007A017B00800CB8
:0C3A8C0090DF62E0FC20E4F87A007B0090
:0E3A980090E328E06063C002C00390E2F2E514
:0C3AA600082405F8E0F6A3E008F6A3E011
:0E3AB20008F6A3E008F6ACE27D00ABE3E42CDE
:0E3AC000FCEB3DFD90E316E0FAA3E0FBECC347
:0C3ACE009AFAED9BFBE4FCFDE5082405E2
:0E3ADA00F8EA26FAEB0836FBEC0836FCED089D
:0E3AE80036FD90E2F2EAF0A3EBF0A3ECF0A3BF
:0B3AF600EDF090E328E4F0D003D002D4
:0D3B0100ACE27D00AFE3E42CFCEF3DFD9055
:0E3B0E00E318ECF0A3EDF090E3297401F090C1
:0E3B1C00E595E0FCA3E0FDA3E0FEA3E0FF0CB6
:0C3B2A00BC00090DBD00050EBE00010F1F
:0E3B360090E595ECF0A3EDF0A3EEF0A3EFF018
:043B44008A828B8363
:063B4800850881D008226F
:0A3B4E00C008858108C082C083C052
:083B5800F0ADD9747FB5050042
:0E3B6000503290E585E0FAA3E0FBA3E0FCA361
:0E3B6E00E0FD0ABA00090BBB00050CBC00010B
:013B7C000D3B
:0E3B7D0090E585EAF0A3EBF0A3ECF0A3EDF0E9
:093B8B001237C0900000023CFC5E
:053B94007404B50500FA
:0E3B9900403290E581E0FAA3E0FBA3E0FCA33C
:0E3BA700E0FD0ABA00090BBB00050CBC0001D2
:013BB5000D02
:0E3BB60090E581EAF0A3EBF0A3ECF0A3EDF0B4
:093BC4001237C0900000023CFC25
:0D3BCD008D067F00EE24FEFEEF34FFFFE5C5
:0C3BDA000824FCF8C3E69E08E69F503269
:0E3BE60090E57DE0FAA3E0FBA3E0FCA3E0FD88
:0D3BF4000ABA00090BBB00050CBC00010D56
:0E3C010090E57DEAF0A3EBF0A3ECF0A3EDF06C
:093C0F001237C0900000023CFCD9
:043C18001D1D7E00F0
:043C1C00EEB50500FC
:0C3C2000501FC005A80808EE26FFE408AD
:0E3C2C0036FD0886028F828D838AF0E5D9125C
:073C3A0048C50ED00580DB38
:0E3C4100E5D924D3FAE5D9FB30E75DEA3395E7
:0E3C4F00E0FCC003C005C002C0047582041270
:0E3C5D004FC815811581D005D00353037F7A1F
:0E3C6B0000C005C003C002758203124FC815C9
:0E3C7900811581D00590E599E0FAA3E0FBA348
:0E3C8700E0FCA3E0FE0ABA00090BBB00050C2E
:043C9500BC00010E60
:0E3C990090E599EAF0A3EBF0A3ECF0A3EEF0B7
:023CA70080316A
:0E3CA90090E589E0FAA3E0FBA3E0FCA3E0FEB7
:0D3CB7000ABA00090BBB00050CBC00010E91
:0E3CC40090E589EAF0A3EBF0A3ECF0A3EEF09C
:083CD2001237C09000008022AF
:0E3CDA0090DF62E0FA53020CBA040E90DF5342
:0B3CE800E0FA7007C0051237C0D005DD
:093CF30053E9DF7A008D828A8317
:063CFC00850881D00822BA
:053D0200AA82BA0B00CB
:073D07004007741AB5020029
:023D0E0050045F
:043D10007582FF2297
:0E3D14007582FFC00212456E7582E512456E83
:0E3D2200D0028A037C00EB24F5FBEC34FFFC9E
:0E3D3000C002C003C00490000512493DAD82E0
:0E3D3E00AE83158115818D038E0474652BFBF9
:0D3D4C0074013CFC43044090DF10ECF0904B
:0E3D5900DF11EBF07582E212456ED0028A8215
:013D67002239
:073D6800AA827464B5020099
:063D6F0050047582FF22E2
:0E3D7500EA75F01FA4FBACF0C0027464C0E05D
:0E3D8300E4C0E08B828C83127C71AD82AE8333
:0E3D910015811581D0028D038E0474602BFB0A
:0D3D9F0074A13C90DF0AF090DF0BEBF09078
:073DAC00E2D6EAF08A822250
:0E3DB30090E2D7E0FA20E73490DF4F747FF003
:0E3DC10090DF0674D2F090E2D774804AF09042
:073DCF00DF17E0FA54F7F0E2
:083DD600E5E930E7FB53BEFBF9
:0E3DDE00E5BE30E6FB7582E212456E7582E6A8
:033DEC0012456E0F
:0E3DEF00AAE27B00ADE37C00EC2AFAED3BFB80
:0E3DFD0090E318EAF0A3EBF090E3297401F0D4
:043E0B009000012200
:0D3E0F007582FF12456E7582E512456E90BA
:0D3E1C00DF17E0FA4408F090E2D7E4F090E0
:0E3E2900E329E0604B90E2F6E0FAA3E0FBA391
:0E3E3700E0FCA3E0FDAEE27F00A9E3E42EFE76
:0E3E4500E93FFF90E318E0F8A3E0F9EEC39820
:0E3E5300FEEF99FFE4F8F9EE2AFAEF3BFBE8E8
:0E3E61003CFCE93DFD90E2F6EAF0A3EBF0A395
:0A3E6F00ECF0A3EDF090E329E4F07D
:043E79009000012292
:0A3E7D00C008858108AA82AB83907B
:0C3E8700DF4BEBF090DF4CEAF0E5082484
:0C3E9300FCF890DF4D08E6F0E50824FC88
:0C3E9F00F886027B0090DF4EEAF0E50898
:0E3EAB0024F9F8B6000A08B6000608B60002B0
:023EB900803156
:063EBB007D437EDF7F0065
:033EC100BF080037
:0C3EC4005026E50824F9F8EF26FAE4087F
:0E3ED00036FB0886048A828B838CF0127037D2
:0E3EDE00FA8D828E83F0A3AD82AE830F80D565
:033EEC00D00822D9
:0A3EEF00C0088581087A007582E2A0
:0E3EF900C00212456E900040125050D002E5FB
:093F07000824FDF8B60002804513
:0C3F1000E50824FDF8B6014790DF62E0F0
:083F1C00FB30E0317B017C0069
:083F2400EB60387401B50400E4
:043F2C0050027B00C4
:0E3F3000900100C002C003C004125050D00423
:0E3F3E00D003D00290DF62E0FD20E0047B00A3
:023F4C007A01F8
:033F4E000C80D311
:043F51007A01800A67
:0A3F550090DF62E0FB20E0027AFF3B
:0C3F5F00EA3395E0FB8A828B83D00822B5
:0B3F6B00E582FA60067582E902456EEF
:063F76007582E802456EB1
:01AD4A000008
:0E3F7C0075E409D2B9E5F120E60543FD0880A1
:013F8A000333
:033F8B0043FE02F0
:073F8E0075E64453D8BF2281
:0C3F9500AA82AB838ADC8BDD43E640226D
:0C3FA100C020C0E0C0F0C082C083C0029D
:0E3FAD00C003C004C005C006C007C000C001AC
:0E3FBB00C0D075D000C2B9AAE27B00ADE3E42D
:0E3FC9002AFAED3BFB90E30EEAF0A3EBF0903A
:0E3FD700E3247401F053E4BF53E6BF12275EEB
:0E3FE50090E324E0604B90E2E2E0FAA3E0FB00
:0E3FF300A3E0FCA3E0FDAEE27F00A9E3E42E14
:0E400100FEE93FFF90E30EE0F8A3E0F9EEC306
:0E400F0098FEEF99FFE4F8F9EE2AFAEF3BFB7A
:0E401D00E83CFCE93DFD90E2E2EAF0A3EBF0A6
:0B402B00A3ECF0A3EDF090E324E4F020
:0E403600D2B9D0D0D001D000D007D006D0052E
:0E404400D004D003D002D083D082D0F0D0E0E0
:03405200D0203249
:08009200798FE94400601B7A3C
:05009A000190AD0C789F
:03009F002B75932B
:0A00A200ECE493F2A308B800020595
:0800AC0093D9F4DAF27593FF19
:044055007A007B0072
:0E405900C3EA940CEB64809480504C8A04EB14
:0D406700CC25E0CC33CC25E0CC33FDEC249F
:0A407400DAFCED34E2FD8A06EBCE23
:0C407E0025E0CE33FFEE240AF582EF347B
:0C408A00E3F583E4F0A3F08C828D83E466
:0C409600F0A3F0A3F0A3F0EA2422F582CE
:0C40A200EB34E3F583E4F00ABA00AC0B49
:0240AE0080A9E7
:0140B00022ED
:0A40B100C008858108C082C083E5C5
:0A40BB0081240AF581A80808E62414
:0A40C50022FC08E634E3FD8C828D36
:0740CF0083E0700302418F42
:0D40D600ACE27D00AFE3E42CFCEF3DFDE526
:0A40E300082403F8A60408A605A8A7
:0C40ED000808860608E6CE25E0CE33CE9B
:0B40F90025E0CE33FFEE24DAFEEF34AA
:0A410400E2FF8E828F83E508240598
:0E410E00F8E0F6A3E008F6A3E008F6A3E00848
:0C411C00F6A80808860208E6CA25E0CADA
:0A41280033FBE5082409F8EA240A35
:0A413200F6EB34E308F6E508240973
:0C413C00F88682088683E0FCA3E0FDE525
:0C414800082403F8E6C39CFC08E69DFD7B
:0C415400E4FAFBE5082405F8EC26FCED7D
:0E4160000836FDEA0836FAEB0836FB8E828F31
:0D416E0083ECF0A3EDF0A3EAF0A3EBF0E585
:0A417B00082409F88682088683E50F
:0A418500082403F9E7F0A309E7F0AE
:0C418F00A80808860208E6CA25E0CA332A
:0C419B00CA25E0CA33FBEA24DAF582EB07
:0C41A70034E2F583E0FAA3E0FBA3E0FCA7
:0C41B300A3E08A828B838CF0850881D009
:0241BF000822D4
:0741C100900000E4F5F0227C
:0A41C800C008858108AA82E583CAB9
:0C41D20025E0CA33CA25E0CA33FBEA240A
:0941DE00DAF582EB34E2F583E529
:0C41E7000824FAF8E6F0A308E6F0A308AC
:0941F300E6F0A308E6F0D0082272
:0A41FC00C008E581F508240AF581EA
:09420600E5082403F8E4F608F6CB
:0C420F00E5082403F8C3E6940C08E664FC
:08421B0080948040030243007F
:0A422300E5082403F8E62422FC0855
:0C422D00E634E3FD8C828D83E070030218
:0242390042F24F
:0D423B00ACE27D00AFE3E42CFCEF3DFDA8FC
:0A4248000808A60408A605E50824EE
:0E42520003F8860608E6CE25E0CE33CE25E042
:0A426000CE33FFEE24DAFEEF34E265
:0C426A00FF8E828F83E5082405F8E0F643
:0D427600A3E008F6A3E008F6A3E008F6E5D3
:0C428300082403F8860208E6CA25E0CAF9
:0A428F0033FBE5082409F8EA240ACD
:0A429900F6EB34E308F6E50824090B
:0C42A300F88682088683E0FCA3E0FDA8FA
:0C42AF000808E6C39CFC08E69DFDE4FA4C
:0C42BB00FBE5082405F8EC26FCED0836B5
:0E42C700FDEA0836FAEB0836FB8E828F83EC98
:0C42D500F0A3EDF0A3EAF0A3EBF0E50885
:0C42E1002409F88682088683A90809E7F2
:0542ED00F0A309E7F059
:0B42F200E5082403F806B600020806E9
:0342FD0002420F6B
:06430000850881D00822AF
:06430600AA82AB83ACF0BB
:0E430C008A828B838CF0127037FD60180ABA1B
:03431A0000010B94
:0E431D008D82C002C003C004126E23D004D0F3
:05432B0003D00280DC5C
:01433000226A
:0E433100E582FAC4540F90AC5993F582C00295
:0E433F00126E23D002740F5A90AC5993F5827F
:03434D00026E23DA
:04435000AA827B8042
:0B435400EB6025EB5AFCE4BC00010408
:04435F00FCB40100A9
:0D436300E43390AC6A93F582C002C00312EF
:0C4370006E23D003D002EBC313FB80D8F7
:01437C00221E
:0E437D00758242126E23758261126E23758264
:0E438B006E126E2375826B126E2375823A12CB
:0C4399006E23758220126E23859F821215
:0843A500435075820A026E23E9
:0EAC5900303132333435363738396162636456
:03AC67006566001F
:03AC6A0030310086
:0E43AD0090AC6DE493FAA3E493FBC002C0034E
:0E43BB008A828B83120083D003D00290ACBAAA
:0E43C900E493FAA3E493FBC002C0038A828B44
:0E43D70083120083D003D00290AC98E493FAD6
:0D43E500A3E493FBC002C0038A828B831205
:0E43F2000083D003D00290ACACE493FAA3E4B5
:0E44000093FBC002C0038A828B83120083D01C
:04440E0003D00222B3
:0A441200C008858108AA82AB83ACC4
:0E441C00F074022AFDE43BFE8C078D828E8335
:0C442A008FF0E50824FCF8E61248C5A35A
:0E44360008E61248C5C002C003C0041250A21E
:0E444400AD82AE83D004D003D0028A828B8377
:0C4452008CF0ED1248C5A3EE1248C5D056
:02445E00082232
:0E446000AA82AB83ACF0127037FDA312703746
:0E446E00FE74022AFFE43BF88C018F828883E3
:0E447C0089F0127037FFA3127037F8EF2DFD94
:0E448A00E83EFE8A828B838CF0ED1248C5A3BB
:04449800EE0248C523
:0D449C00AA82AB83ACF0C002C003C00412C2
:0E44A90050A2AD82AE83D004D003D0028A822E
:0D44B7008B838CF0ED1248C5A3EE0248C5C2
:0A44C400C008858108C082C083C0D3
:0C44CE00F01250A2AD82AE83A808088650
:0D44DA00820886830886F0127037FFA31257
:0E44E7007037FAEDC39FFDEE9AFE0DBD000189
:0144F5000EB8
:0C44F600A80808740226FAE40836FB0847
:0E45020086048A828B838CF0127037FAA31223
:0E4510007037FBC3EA9DEB9EE433FD3395E06C
:0A451E00FA8D828A83850881D00897
:014528002270
:0E452900AA82AB83ACF0127037FDA31270377C
:0E453700FE74022AFAE43BFB8A828B838CF02E
:0E454500127037FAA3127037FBEA2DFDEB3E21
:0E455300FEC005C0061250A2AA82AB83D0069D
:0D456100D005EDC39AFDEE9B8D82F58322FF
:05456E00AA82BAE00082
:074573004032BAE2028008A9
:05457A00BAE30280031A
:03457F00BAE52278
:0D45820090DF53E0FB8AE1900002C00312BD
:0E458F005050D00390DF53E0FCEBB504012246
:07459D0075E1E675E1E6227D
:0345A4008AE12287
:0C45A700BADE1053E9FD75E1DF75E1FE9E
:0745B300E5E920E10480F9B5
:0245BA008AE194
:0145BC0022DC
:0345BD000238B908
:0A45C000C008858108AA82AB83AC15
:0C45CA00F0E50824FCF8E6C0E008E6C0BC
:0E45D600E08A828B838CF012382CAA82AB8391
:0B45E400158115818A828B83D008228C
:0345EF0002395737
:0345F200023E0F77
:0345F500023DB3D1
:0A45F800C008858108AA82AB83ACDD
:0C460200F0E50824FCF8E6C0E008E6C083
:0E460E00E08A828B838CF012382C1581158186
:06461C00123957D00822FC
:0A462200C008858108AA82AB83ACB2
:0C462C00F0E50824FCF8E6C0E008E6C059
:0E463800E08A828B838CF0123B4EAA82AB8309
:0B464600158115818A828B83D0082229
:0E465100E4C0E0758200123EEFAA82AB831532
:06465F00818A828B832298
:034665000238A276
:034668000238AA6B
:02AC6D00BD45E3
:02AC6F00C045DE
:02AC7100EF45AD
:02AC7300F845A2
:02AC7500224675
:02AC7700514644
:02AC790065462E
:02AC7B00684629
:02AC7D00F5459B
:02AC7F00F2459C
:0A466B00C008858108C082C083C02A
:0A467500F00581E5082404F8760042
:08467F00E5082404F8B602006E
:0A4687005045A80808E5082404F9CE
:0C469100E726FEE40836FF088602E50874
:0C469D0024FBF88603088604088605E567
:0C46A900082404F8E62BFBE43CFC8B82A8
:0E46B5008C838DF0127037FB8E828F838AF01B
:0B46C3001248C5E5082404F80680B189
:0646CE00850881D00822DE
:0A46D400C008858108C082C083C0C1
:0A46DE00F00581E5082404F87600D9
:0846E800E5082404F8B6020005
:0A46F0005051A80808E5082404F959
:0C46FA00E726FEE40836FF088602E5080B
:0C47060024FBF88603088604088605E5FD
:0C471200082404F8E62BFBE43CFC8E823B
:0E471E008F838AF0127037FE8B828C838DF0B1
:0A472C00127037FBEEB503028005A2
:05473600900000800B63
:08473B00E5082404F80680A53E
:03474300900001E2
:06474600850881D0082265
:0D474C00AA82AB83ACF0C002C003C0049091
:0E475900E32E75F00012466B15811581158157
:01476700222F
:02AC81000000D1
:0A476800C008E581F5082405F5817D
:0C477200AA82AB83ACF07D007E00A8089A
:05477E0008E4F608F656
:0A478300C005C006A80808E50824D8
:0E478D0003F9E62AF708E63B09F709A704E559
:0C479B00082403F886820886830886F054
:0E47A7001270371818F6A312703708F6A31216
:0C47B500703708F6E5082403F8B6000E83
:0E47C10008B6000A08B60006D006D0058048EB
:0E47CF00D006D005C002C003C004C005C0065D
:0C47DD00E4C0E0C0E0C0E0E5082403F800
:0E47E90086820886830886F0122A88158115BC
:0E47F700811581D006D005D004D003D002A8D1
:0C4805000808740326F6E40836F60DBD22
:0348110000010E95
:03481400024783D5
:06481700850881D0082293
:0A481D00C008E581F5082405F581C7
:0C482700AA82AB83ACF07D007E00A808E4
:0548330008E4F608F6A0
:0A483800C005C006A80808E5082422
:0E48420003F9E62AF708E63B09F709A704E5A3
:0C485000082403F886820886830886F09E
:0E485C001270371818F6A312703708F6A31260
:0C486A00703708F6E5082403F8B6000ECD
:0E48760008B6000A08B60006D006D005803B42
:0C488400D006D005E5082403F886820861
:0E48900086830886F0C002C003C004C005C0C5
:0E489E0006122F32D006D005D004D003D0026F
:0C48AC00A80808740326F6E40836F60D90
:0448B800BD00010E30
:0348BC0002483877
:0648BF00850881D00822EB
:0E48C50020F71030F6118883A88220F507F640
:0548D300A883758300BD
:0148D80022BD
:0348D900F280F773
:0248DC00F022C8
:0148DE0022B7
:0E48DF007A00C0021228AFAB82D002EB30E6A6
:0348ED00027A0448
:0748F000EB30E70343020176
:0348F7008A822290
:0E48FA00AA82C0021228AFAB82D00290E33037
:0E490800EBF0EA30E20990E33074404BF080AF
:014916000799
:0749170090E33074BF5BF078
:0E491E00EA30E00A90E330E0FA4480F08008CE
:08492C0090E330E0FA547FF043
:0949340090E330E0F582022864F2
:0A493D00C008858108C082C083E530
:0A494700812407F581AA080AE5089B
:0C4951002403F8A602087600087640E572
:0A495D000824FCFA7B007C40E5080A
:0C4967002406F8E5082403F9878209877C
:0E497300830987F0127037FD8A828B838CF0E7
:0C498100127037FE8DF0A4F608A6F0E5D9
:0C498D0008240604F886070ABA00010B93
:0E4999008A828B838CF01270378DF0A4FDE5BE
:0C49A700082403F9740127FAE40937FB27
:0E49B3000987048A828B838CF0127037FA8A8F
:0C49C100F0EEA42D2FF6E5082406F88681
:0C49CD00020886038A828B83850881D053
:0249D9000822B2
:0E49DB0090E36BE4F0A3F090E369E4F0A3F046
:0E49E90090E36D7430F090EC6AE0FAA3E0FB0E
:0E49F700A3E0FC90E42074302AF0E43BA3F02F
:064A0500A3ECF0024EA13B
:074A0B0090E36D7430F0220E
:0A4A1200C008858108C082C083C07F
:0C4A1C00F01249DBE50824FCF8C37480AC
:0C4A280096E4089650067D807E00800A0F
:0A4A3400E50824FCF8860508860654
:0E4A3E0090E420E0FFA3E0FAA3E0FBC005C077
:0C4A4C0006C005C006A80808E6C0E00887
:0E4A5800E6C0E008E6C0E08F828A838BF01291
:0D4A66005AB2E58124FBF581D006D0059001
:0C4A7300E369EDF0A3EEF08D828E8385E8
:054A7F000881D00822AF
:0A4A8400C008E581F5082407F5815C
:0D4A8E00124E1BE5828583F045F0604C124E
:0C4A9B004E69A808080808A68208A68337
:0E4AA700124E57AC82AD83AEF090EC6AE0FF89
:0E4AB500A3E0FAA3E0FB74302FFFE43AFAE529
:0C4AC300082403F8E6C0E008E6C0E0C0EC
:0E4ACF0004C005C0068F828A838BF0125AB293
:094ADD00E58124FBF581024B89FF
:0E4AE60090E36BE0FAA3E0FB4A7003024B89F9
:0E4AF400124E69AA82AB8374302AFAE43BFBAF
:084B0200A808087630087600CF
:0C4B0A00A80808C3E69A08E664808BF057
:0E4B160063F08095F05065C002C00390EC6A19
:0C4B2400E0FEA3E0FFA3E0FAA80808E50B
:0C4B3000082405F9E62EF708E63F09F717
:0C4B3C0009A70290E36BE0FBA3E0FCA8DB
:0C4B48000808E62BFB08E63CFCEB2EFE08
:0E4B5400EC3FFF8E828F838AF0127037FEE5F1
:0C4B6200082405F886820886830886F087
:0C4B6E00EE1248C5A8080806B6000208B0
:014B7A000634
:074B7B00D003D002024B0A37
:074B820090E36BE4F0A3F0E7
:064B8900850881D008221E
:0A4B8F00C008858108C082C083C001
:0E4B9900F090E36DE0FDFE7F007430C39EFEE1
:0E4BA700E49FFF90EC6AE0FAA3E0FBA3E0FCC1
:0E4BB500ED2AFDE43BFBC006C007C005C003AF
:0C4BC300C004A8080886820886830886C3
:0E4BCF00F0125AB2E58124FBF58190E36DE00F
:0E4BDD00FB7C007430C39BFBE49CFC8B828C41
:074BEB0083850881D0082238
:0A4BF200C008858108C082C083C09E
:0E4BFC00F0E5812408F58190E36DE0FDFE7F79
:0C4C0A0000E5082404F87430C39EF6E4B2
:0C4C16009F08F690E369E0FAA3E0FBE5DC
:0C4C2200082404F8EA26FAEB0836FBC36D
:0D4C2E0074809AE49B5006900000024CF93F
:0E4C3B007430C39EFEE49FFF90EC6AE0FAA383
:0E4C4900E0FBA3E0FCED2AFAE43BFBC006C052
:0C4C570007C002C003C004A80808868241
:0E4C63000886830886F0125AB2E58124FBF51C
:0E4C71008190E36BE0FAA3E0FB90E420E0FC0E
:0E4C7F00A3E0FDA3E0FEEA2CFAEB3DFB8E075E
:0A4C8D00A80808E5082406F97430B1
:0E4C970026F7E4083609F70809E6F790E36D02
:0C4CA500E0FC7D00E5082406F8E6C39C56
:0E4CB100FC08E69DFD08860690E369E0C0E081
:0E4CBF00A3E0C0E0C002C003C0078C828D835A
:0E4CCD008EF0125AB2E58124FBF58190E36D62
:0D4CDB00E0FA7B007430C39AFAE49BFB9072
:0E4CE800E369E0FCA3E0FDEC2AFAED3BFB8A59
:034CF600828B832B
:064CF900850881D00822AD
:0E4CFF00AA82AB8390E36DE0FC7D00C3EC9ACB
:0E4D0D00ED64808BF063F08095F0402BC002C7
:0E4D1B00C003124E81AC82AD83D003D002EAF9
:0E4D29002CFCEB3DFDC374809CE49D400E907D
:0D4D3700E36DE090E36DC39AF0900001225F
:044D440090000022B9
:0E4D4800AA8290E36DE0FB90E36DEA2BF0226F
:0E4D5600AA82AB8390E369E0FCA3E0FD8A062D
:0D4D64008B07C3EC9EED9F500490000022D1
