:040000000200853243
:01000B0032C2
:0300130002125185
:03001B000213329B
:0100230032AA
:03002B00024C7A0A
:01003300329A
:03003B0002132588
:03004300024FADBC
:03004B00023AFF77
:01005300327A
:01005B003272
:01006300326A
:03006B0002106F11
:030073000214066E
:03007B0002115A15
:03010E0002007E6E
:05007E001202FB80FEF0
:0A011100C008858108C082C0837C0D
:03011B00007D0064
:0E011E00C3EC9490ED64809481400302020DC6
:0E012C00C374C89C74808DF063F08095F05011
:0C013A000B7490C39CFE74019DFF8004B8
:040146008C068D078F
:0C014A00A8080886028A82C002C004C017
:0E01560005C006C00712161BD007D006D00544
:0B016400D004D00290E000E4F0A3F013
:0E016F00C00290E000E0FBA3E0FAC3EB9EEAC2
:0E017D0064808FF063F08095F0D0025022C0B5
:0E018B000290E000E0FBA3E0FA90E002EBF04F
:0E019900A3EAF090E000E02401F0A3E03400BF
:0501A700F0D00280C34E
:0E01AC008A82C004C005C006C007121632D0F9
:0E01BA0007D006D005D00490E000E4F0A3F0DA
:0801C80074C8C39EFAE49FFB1A
:0E01D00090E000E0FEA3E0FFC3EE9AEF648033
:0E01DE008BF063F08095F0501E90E000E0FE84
:0E01EC00A3E0FF90E002EEF0A3EFF090E00041
:0B01FA00E02401F0A3E03400F080CB13
:050205000CBC00010D1E
:03020A0002011ED0
:06020D00850881D00822E3
:0A021300C00885810805810581C23D
:0A021D00AF759F037AF87BFF7C00A9
:03022700BC080010
:0A022A00501DEC2406FDE434E0FE54
:0E0234008A828B83E493FFA3AA82AB838D8220
:070242008E83EFF00C80DE5B
:0C024900759F01D2AFAA080A7B007C4020
:0E0255007402C0E0E4C0E0E4C0E08A828B8363
:0E0263008CF012573B15811581158190EC101F
:09027100E0FAA3E0FB4A701FFA59
:03027A00BA0200C5
:0C027D005038AB080BEA2BF87401C39A50
:0A0289002406F582E434E0F583E07A
:05029300FBF60A80E209
:0A02980090A6E975F080123E64AAFA
:0C02A200080AEA04F890EC10E0FAA3E06F
:0902AE00FCF6A808087B00A6027A
:0C02B700AA080A7B007C408A828B838CA2
:0C02C300F01242AAA8080886028A037AFA
:0C02CF0000AC080CEC04F886047D00EC88
:0E02DB002AFAED3BFBE4C0E0C0E0C0E0C00248
:0D02E900C00390FFFF1239DBE58124FB8587
:0502F6000881D0082280
:0702FB00126CD91222091256
:0903020023B31215E99000011269
:0D030B00011190C20075F001E41255309010
:060318002414121326124A
:06031E002AB41225A49090
:09032400A70E75F080123E6490F2
:09032D00A72775F080123E64124E
:090336001694900000125F8F1272
:0D033F003F0B120213E4C0E0C0E0C0E090EC
:0E034C00EC2475F0001225E61581158115814F
:0E035A001262E4E4C0E0C0E0C0E090EC487540
:0E036800F0001225E615811581158112200383
:0E037600900004120111123BB3AAE27B00AD0D
:0E038400E37C00EC2AFAED3BFB90E2EFEAF09E
:0E039200A3EBF090E3077401F090A75B75F009
:0703A000801242C6121698FC
:0E03A70012169C122CF6AA82AB83C3E49A7441
:0E03B500808BF063F08095F040E890A862E441
:0E03C30093FAA3E493FB8A828B83120083AA31
:0E03D10082AB8390E004EAF0A3EBF0EA4B600D
:0E03DF00C71245391248FCAA82AB83ACF074F9
:0D03ED0080C0E0E4C0E08A828B838CF012B7
:0E03FA0036ACAA82AB831581158190E004EA2F
:0E040800F0A3EBF0C3E49A74808BF063F080F5
:0E04160095F0508D8A828B831248F090A8A535
:0E042400E493FAA3E493FBC002C0038A828B28
:0B04320083120083D003D0020203A756
:0EA6E90053657474696E67206D616E75616CE7
:0EA6F70020616464726573732066726F6D205B
:09A705006E6F64655F69640A006F
:0EA70E0057656C636F6D6520746F20436F6E2E
:0BA71C0074696B6920322E342E0A0095
:0EA7270052756E6E696E67206F6E3A204E3767
:0EA735003430204E616E6F53656E736F72206C
:0EA74300284343323433312D46313238292E2B
:02A751000A00FC
:02A8F300000063
:0E00DE0090E082E4F0A3F090E084E4F0A3F060
:0A00EC0090E096E4F090E097F090A9
:0E00F600E0987423F0A3F090E09AE4F0A3F0F9
:0501040090E09CE4F016
:0A043D00C008E581F508240BF581E5
:0C0447001248FCAA82AB83ACF0A80808A5
:0C045300A60208A60308A604A808088654
:0E045F00820886830886F0126C3CFDBD2602E2
:02046D0080030A
:03046F0002081967
:0A047200E5082406F8E4F608F6A8F1
:0C047C000808740226FFE40836FD08861C
:0E048800068F828D838EF0126C3CFD7F00A8E3
:0C0496000808740126FEE40836FA088607
:0E04A200038E828A838BF0126C3CFE7A0090EF
:0C04B000E082EE4FF0EA4DA3F0E50824D6
:0E04BC00FBF8860208860308860474012AFDF8
:0E04CA00E43BFE8C078D828E838FF0126C3C1B
:0C04D800FDE5082404F8A605087600E500
:0C04E400082404F8E608F61876008A8266
:0C04F0008B838CF0126C3CFA7B00E5085A
:0C04FC002404F8EA46F6EB0846F6A808CF
:0E05080008740426FAE40836FB0886048A828A
:0C0516008B838CF0126C3CFB7A00A80870
:0E05220008740326FCE40836FF0886058C8268
:0E0530008F838DF0126C3C7D004202ED420381
:0E053E00758204C002C003124B49AC82AD832B
:0E054C00D003D00290E084E4F0A3F090E00E23
:0C055A00E0FEA3E0FF90E082E50824082A
:0C056600F8E0F6A3E008F6E5082408F829
:0B057200E6B5060708E6B507028003A7
:03057D0002061360
:0B058000E5082406F8760108760090DC
:0C058B00E010E0FEA3E0FFE5082404F807
:0B059700E6B5060708E6B50702800283
:0205A2008012C5
:0E05A40090E014ECF0A3EDF090E012EAF0A36A
:0405B200EBF0805D8D
:0E05B600C374B89A740B9B505490E014E0FE8E
:0E05C400A3E0FFC3EE9CEF9D501290E014ECFC
:0E05D200F0A3EDF090E012EAF0A3EBF080331E
:0E05E00090E012E0FEA3E0FFC3EE9AEF9B4016
:0405EE0003020819E3
:0C05F20090E010E5082404F8E6F0A308EF
:0E05FE00E6F090E014ECF0A3EDF090E012EACD
:07060C00F0A3EBF002081956
:0B061300E5082406F8E6084660030234
:02061E0006D8FC
:0706200090E084E4F0A3F078
:0E06270090E084E0FEA3E0FFC3EE9403EF64D6
:0806350080948040030206D806
:0E063D00C004C005EFC40354F8CEC403CE6E53
:0C064B00CE54F8CE6EFFE508240AF8EE4D
:09065700240EF6EF34E008F6E58C
:0C06600008240AF88682088683E0FCA3C8
:0A066C00E0FDBCFF05BDFF028006A3
:06067600D005D004804D08
:0C067C00D005D004E508240AF8868208A6
:0C0688008683E5082408F9E7F0A309E7E1
:0A069400F0EE240EFEEF34E0FF8EBE
:0C069E00828F83A3A3E5082404F8E6F093
:0E06AA00A308E6F074062EF582E43FF583EC1B
:0E06B800F0A3EDF08E828F83A3A3A3A3EAF03C
:0306C600A3EBF0B3
:0D06C90090E084E02401F0A3E03400F00292
:0206D6000627F5
:0E06D800740AC0E0E4C0E0C0E0125F3F15818C
:0B06E6001581158190E084E4F0A3F082
:0E06F10090E084E0FAA3E0FBC3EA9403EB641C
:0806FF008094804003020819F9
:0E070700EBC40354F8CAC403CA6ACA54F8CA41
:0A0715006AFBEA240EF582EB34E0E3
:0C071F00F583E0FAA3E0FBC002C0037405
:0A072B0061C0E074A7C0E07480C054
:0E073500E0125F3FE58124FBF58190E084E057
:0E074300FAA3E0C40354F8CAC403CA6ACA5435
:0A075100F8CA6AFBEA240EFAEB3442
:0C075B00E0FB8A828B83A3A3E0FAA3E0FA
:0A076700FBC002C003747BC0E07405
:0C077100A7C0E07480C0E0125F3FE5818B
:0E077D0024FBF58190E084E0FAA3E0C403546D
:0E078B00F8CAC403CA6ACA54F8CA6AFBEA2450
:0A0799000EFAEB34E0FB8A828B833A
:0E07A300A3A3A3A3E0FAA3E0FBC002C003746B
:0A07B10089C0E074A7C0E07480C0A6
:0E07BB00E0125F3FE58124FBF58190E084E0D1
:0E07C900FAA3E0C40354F8CAC403CA6ACA54AF
:0A07D700F8CA6AFBEA240EFAEB34BC
:0C07E100E0FB74062AF582E43BF583E09F
:0C07ED00FAA3E0FBC002C003749DC0E052
:0C07F90074A7C0E07480C0E0125F3FE510
:0E0805008124FBF58190E084E02401F0A3E063
:060813003400F00206F1C2
:07081900124539850881D06A
:020820000822AC
:06082200C00885810812E8
:050828004539D0082253
:0A082D00C008E581F5082406F581F6
:0E083700AA82AB83ACF07D01126C3CFEA312D2
:0B0845006C3CFFBE0005BF0002800CF1
:09085000BEDC06BF0003020950E2
:03085900020E3953
:05085C0090E096E4F0BD
:0808610090E096E0FEBE0300EA
:0E0869005054C002C003C004EEC40354F8FF94
:0A087700240EF582E434E0F58374EA
:0A088100FFF0A3F0EF240EFFE434B3
:0C088B00E0FA8F828A83A3A374FFF0A31D
:0E089700F08F828A83A3A3A3A3E4F0A3F074DE
:0D08A500062FF582E43AF583E4F0A3F0900D
:0D08B200E096EE04F0D004D003D00280A246
:0D08BF0090A7A875F080C002C003C004120D
:0908CC003E6490A7C575F080128E
:0908D5003E6490A7D875F0801272
:0708DE003E647453C0E07496
:0C08E500A7C0E07480C0E07486C0E0E4AE
:0E08F100C0E090E03875F000124EF6E581246C
:0A08FF00FBF5817457C0E074A7C038
:0D090900E07480C0E07487C0E0E4C0E090BE
:0E091600E02675F00012540AE58124FBF581FD
:0E092400E4C0E07401C0E090E08675F00012BF
:0C0932001D6015811581D004D003D00297
:0E093E007D008A828B838CF074DC124423A32C
:04094C00E41244234A
:0E095000ED601E90E08675F000C002C003C08E
:0E095E0004121E24E5828583F0D004D003D05D
:05096C000245F07006D9
:06097100758201020E4B2D
:0A09770090E096E0FD6003020CC260
:0D09810090A7F375F080C002C003C00412FF
:0E098E002FACAD82AE83AFF090E07DEDF0A314
:0E099C00EEF0A3EFF074032DFDE43EFE8D821D
:0E09AA008E838FF0126C3CFDA3126C3CFE7429
:0A09B800C7C0E07409C0E0C005C02C
:0509C200069000002278
:0E09C700AD82AE83D004D003D00290E07BED71
:0D09D500F0A3EEF0BDFF06BEFF03020B49CC
:0E09E200C002C003C0048D828E83C003C00417
:0E09F000125651AD82AE83AFF0FAD004D003A0
:0E09FE00C005C006C007C00290538F75F01CE4
:0E0A0C00743F122166AA82AB83ACF0FDE58137
:0E0A1A0024FCF581E4C0E07440C0E07441C0EB
:0D0A2800E07444C0E08A828B838CF0ED12F4
:0E0A35000E51AA82AB83ACF0FDE58124FCF5E6
:0E0A430081C002C003C00474CDC0E074CCC0FA
:0E0A5100E0741CC0E07440C0E08A828B838C8D
:0C0A5F00F0ED126A34A808080808A6820E
:0E0A6B0008A68308A6F008F6E58124FCF581B4
:0C0A7900E5082403F890EC15E6F008A353
:0C0A8500E6F008A3E6F008A3E6F0E508A0
:0E0A91002403F886820886830886F008E612A1
:0C0A9F00565EA80808A68208A683D004B2
:0C0AAB00D003D002A8080890E090E6F00C
:0C0AB70008A3E6F0A808088682088683E1
:0E0AC300C004125651AE82AF83AAF0FBD004DD
:0C0AD100C006C007C002C003E5082403F3
:0E0ADD00F886820886830886F008E6120E511D
:0E0AEB00AA82AB83ACF0FDE58124FCF581907E
:0E0AF900E092EAF0A3EBF0A3ECF0A3EDF0A87E
:0C0B0700080890EC19E6F0C002C003C022
:0E0B130004C00590000075F0C87442122166FF
:0E0B2100AA82AB83ACF0FDE58124FCF5818A4D
:0E0B2F00828B838CF0EDC004125692AA82D005
:0C0B3D000490EC1AEAF0D004D003D002BF
:0E0B490090E07DE0FDA3E0FEA3E0FF74032D2D
:0E0B5700FDE43EFE8D828E838FF0126C3CFD1D
:0C0B6500A3126C3CFEC002C003C004746C
:0A0B710080C0E0740BC0E0C005C0B6
:050B7B000690000422B9
:0E0B8000AD82AE83D004D003D00290E07BEDB6
:0D0B8E00F0A3EEF0BDFF06BEFF03020DE177
:0E0B9B00C002C003C0048D828E83C003C0045C
:0E0BA900125651AD82AE83AFF0FAD004D003E5
:0E0BB700C005C006C007C00290000075F070B7
:0E0BC5007440122166AA82AB83ACF0FDE5817C
:0E0BD30024FCF581E4C0E074E0C0E074FFC0D3
:0D0BE100E07444C0E08A828B838CF0ED123A
:0E0BEE006A34AA82AB83ACF0FDE58124FCF5ED
:0E0BFC008190EC15EAF0A3EBF0A3ECF0A3ED72
:0E0C0A00F0C002C003C004C00590000075F0E9
:0E0C18007A7444122166AA82AB83ACF0FDE52B
:0E0C26008124FCF5818A828B838CF0EDC00264
:0E0C3400C003C004125692E5828583F0D004FE
:0D0C4200D003D00290E080F0A3E5F0F09028
:0D0C4F00E0497425F090E098E0FAA3E090F1
:090C5C00E04AF090E04BEAF09050
:080C6500EC12E090E04CF0906D
:080C6D00EC13E090E04DF09063
:090C7500EC14E0FA90E04EF0905E
:0D0C7E00E09AE0FBA3E0FC90E04FEBF0906B
:0E0C8B00EC14EA04F0C002C003C0047407C0F9
:0E0C9900E0E4C0E090E04975F00012457015EF
:0E0CA70081158190E03875F000124F7BD0046B
:0D0CB500D003D002D004D003D002020DE124
:050CC20090E097E4F052
:080CC70090E097E0FDBD030081
:0E0CCF005049C002C003C004EDC40354F82411
:0A0CDD000EF582E434E0F583E0FE3A
:0E0CE700A3E0FF90E098E0FAA3E0FBEAB50678
:070CF50006EBB507028008C1
:080CFC00D004D003D002800EE9
:0E0D0400D004D003D00290E09C7401F080086F
:080D120090E097ED04F080ADC4
:0A0D1A0090E09CE0FD7003020DE183
:0E0D240090E0497427F090E098E0FDA3E09085
:090D3200E04AF090E04BEDF09076
:080D3B00E313E090E04CF0909E
:080D4300E314E090E04DF09094
:080D4B00EC19E090E04EF0907D
:080D5300EC1AE090E04FF09073
:0B0D5B00E080E0FDA3E090E050F0908D
:0E0D6600E051EDF0C002C003C0047409C0E00B
:0E0D7400E4C0E090E04975F000124570158172
:0C0D8200158190E097E0C40354F8240EA3
:0C0D8E00FDE434E0FE8D828E83A3A3E020
:0E0D9A00FDA3E0FE8D0790E047EFF08E059080
:090DA800E048EDF07447C0E0746E
:0C0DB100E0C0E0E4C0E090E02675F00037
:0C0DBD0012548F15811581158174F7C048
:0C0DC900E074A7C0E07480C0E0125F3F3F
:0C0DD500158115811581D004D003D002D7
:0E0DE10090E096E0FD7029C002C003C004E45B
:0D0DEF00C0E07401C0E090E08675F00012D5
:0D0DFC001D6015811581D004D003D0029038
:080E0900E0967401F002093EBD
:0E0E1100C002C003C0047480C0E0E4C0E090E2
:0E0E1F00E08675F000121D6015811581D0046B
:0C0E2D00D003D00290E096E4F002093EF1
:0D0E39008A828B838CF0E4124423A3E41220
:050E4600442375820346
:060E4B00850881D0082299
:04A7530022080000D8
:04A757003D040000BD
:06A75B001BEC00000000F1
:0EA7610044657374696E6174696F6E204164A3
:0CA76F0064726573733A2025640A0D00C3
:0EA77B004E657874486F703A2025640A0D0010
:0EA7890042617474657279204C6576656C3A95
:06A797002025640A0D00FC
:0BA79D00527373693A2025640A0D0016
:0EA7A8000A0D3D3D3D3D3D3D3D3D3D3D3D3DB0
:0EA7B6003D3D3D3D3D3D3D3D3D3D3D3D0A0DA2
:01A7C4000094
:0EA7C50020202020205472616E736D69747420
:05A7D30065720A0D0093
:0EA7D8003D3D3D3D3D3D3D3D3D3D3D3D3D3D1D
:0DA7E6003D3D3D3D3D3D3D3D3D3D0A0D00ED
:04A7F300414443009A
:0EA7F700526563656976656420526F757465FE
:0EA80500205265706C792073656E64696E6711
:09A8130020646174612E2E2E00F8
:01A8F5000161
:01A8F600045D
:01A8F700015F
:04A8F800000000005C
:01A8FC00005B
:01A8FD00005A
:09A8FE000000002D08000000001C
:0B0E5100A8811818C6B2E7C602528F35
:040E5C0053F4FE222B
:040E600053F4FE2227
:040E640043F4012230
:030E6800D2902203
:030E6B00C2902210
:070E6E00A290E433F582229B
:040E750043FE012215
:040E790053FEFE2204
:070E7D00438D01439A10228E
:0A0E8400538DFEE58D7003539AEFC5
:010E8E002241
:0C0E8F007401558DFA7B008A828B83224F
:040E9B00438C022260
:040E9F00538CFD2251
:0C0EA3007401558AFA7B008A828B83223E
:060EAF00C2EB758A00226F
:040EB50053F3EF22E2
:040EB90053F3EF22DE
:040EBD0043F31022C9
:030EC100D28422B6
:030EC400C28422C3
:070EC700A284E433F582224E
:040ECE0043FD1022AE
:040ED20053FDEF22BB
:0E0ED600438C1090E09DE04410F043B82022C1
:0E0EE40090E09DE054EFF090E09DE0FA54F0B5
:030EF2006001227A
:040EF500538CEF2209
:0E0EF90090E09DE0FA5302107B008A828B830A
:010F070022C7
:040F0800438C0122F3
:040F0C00538CFE22E2
:0C0F100074105589FA7B008A828B8322C2
:060F1C00C2C57589002228
:0D0F2200120E6EE582701990E09FF5F0123E
:0B0F2F004022AA82AB83EA4BB4010011
:080F3A00E433FA7003FA8002AF
:020F42007A0132
:090F4400EA3395E08A82F583226C
:0C0F4D00AA82AB83BA8105BB00028006BB
:060F5900BA8206BB000392
:030F5F00020E8FF0
:040F620090000022D9
:0A0F6600C008858108AA82AB83BA97
:070F70008005BB00028008B0
:080F7700BA814ABB0047800E5D
:070F7F00120E9B120E5C1222
:070F86000E79900001803A92
:0B0F8D00E50824FCF8E6084660251289
:0E0F98000E8FE5828583F045F0701CC0E0C02E
:0E0FA600E090E09F75F000123F7015811581FC
:080FB400120EAF120E7D800346
:030FBC00120E848E
:050FBF00900001800319
:030FC4009000009A
:030FC700D008222D
:0D0FCA00120EC7E582701990E0A3F5F01239
:0B0FD7004022AA82AB83EA4BB4010069
:080FE200E433FA7003FA800207
:020FEA007A018A
:090FEC00EA3395E08A82F58322C4
:0C0FF500AA82AB83BA8105BB0002800613
:06100100BA8206BB0003E9
:03100700020EF9DD
:04100A009000002230
:0A100E00C008858108AA82AB83BAEE
:071018008005BB0002800807
:08101F00BA8147BB0044800BBD
:0B102700120EB5120ED2900001803AAC
:0B103200E50824FCF8E60846602512E3
:0E103D000EF9E5828583F045F0701CC0E0C01E
:0E104B00E090E0A375F000123F701581158152
:08105900120F1C120ED68003D9
:03106100120EE488
:05106400900001800373
:03106900900000F4
:03106C00D0082287
:0C106F00C020C0E0C0F0C082C083C002FE
:0E107B00C003C004C005C006C007C000C0010D
:0E108900C0D075D000C2AFAAE27B00ADE3E498
:0E1097002AFAED3BFB90E2F3EAF0A3EBF090B7
:0E10A500E3097401F0120F10E5828583F04517
:0E10B300F0602F90E0A375F000124022E5825D
:0E10C1008583F045F0601D7420C0E0E4C0E0BF
:0E10CF0090E0A375F000123F7015811581901E
:0810DD00A82575F080122F8593
:0E10E500758900C2C590E309E0604B90E2C738
:0E10F300E0FAA3E0FBA3E0FCA3E0FDAEE27F89
:0E11010000A9E3E42EFEE93FFF90E2F3E0F8E0
:0E110F00A3E0F9EEC398FEEF99FFE4F8F9EEC5
:0E111D002AFAEF3BFBE83CFCE93DFD90E2C7FF
:0E112B00EAF0A3EBF0A3ECF0A3EDF090E309E3
:02113900E4F0E0
:0E113B00D2AFD0D0D001D000D007D006D00562
:0E114900D004D003D002D083D082D0F0D0E00A
:03115700D0203273
:0C115A00C020C0E0C0F0C082C083C00212
:0E116600C003C004C005C006C007C000C00121
:0E117400C0D075D000C2AFAAE27B00ADE3E4AC
:0E1182002AFAED3BFB90E2F3EAF0A3EBF090CB
:0E119000E3097401F0120EA3E5828583F04599
:0E119E00F0602F90E09F75F000124022E58275
:0E11AC008583F045F0601D7420C0E0E4C0E0D3
:0E11BA0090E09F75F000123F70158115819036
:0811C800A81C75F080122F85B0
:0E11D000758A00C2EB90E309E0604B90E2C725
:0E11DE00E0FAA3E0FBA3E0FCA3E0FDAEE27F9D
:0E11EC0000A9E3E42EFEE93FFF90E2F3E0F8F5
:0E11FA00A3E0F9EEC398FEEF99FFE4F8F9EEDA
:0E1208002AFAEF3BFBE83CFCE93DFD90E2C713
:0E121600EAF0A3EBF0A3ECF0A3EDF090E309F7
:02122400E4F0F4
:0E122600D2AFD0D0D001D000D007D006D00576
:0E123400D004D003D002D083D082D0F0D0E01E
:03124200D0203287
:03A81C002EA880E3
:02A81F00220F06
:02A82100660FC0
:02A823004D0FD7
:03A8250037A880D1
:02A82800CA0F55
:02A82A000E100E
:02A82C00F50F26
:09A82E00427574746F6E20310054
:09A83700427574746F6E2032004A
:0C124500AA83E58290E0A7F0A3EAF02263
:0C125100C020C0E0C0F0C082C083C0021A
:0E125D00C003C004C005C006C007C000C00129
:0E126B00C0D075D000AAE27B00ADE3E42AFA01
:0E127900ED3BFB90E2F3EAF0A3EBF090E3090B
:0E1287007401F0C28B90E0A7E0FAA3E0FB7CBC
:0C12950080BA0008BB0005BC00028016F7
:0912A10074B7C0E07412C0E090C3
:0D12AA00E0A7E0C0E0A3E0C0E085C1822223
:0E12B70090E309E0604B90E2C7E0FAA3E0FB91
:0E12C500A3E0FCA3E0FDAEE27F00A9E3E42E6F
:0E12D300FEE93FFF90E2F3E0F8A3E0F9EEC37E
:0E12E10098FEEF99FFE4F8F9EE2AFAEF3BFBD6
:0E12EF00E83CFCE93DFD90E2C7EAF0A3EBF01D
:0B12FD00A3ECF0A3EDF090E309E4F097
:0E130800D0D0D001D000D007D006D005D00440
:0D131600D003D002D083D082D0F0D0E0D040
:02132300203276
:011325003295
:0C132600AA83E58290E0A9F0A3EAF0227F
:0C133200C020C0E0C0F0C082C083C00238
:0E133E00C003C004C005C006C007C000C00147
:0E134C00C0D075D000AAE27B00ADE3E42AFA1F
:0E135A00ED3BFB90E2F3EAF0A3EBF090E30929
:0E1368007401F0C28F90E0A9E0FAA3E0FB7CD4
:0C13760080BA0008BB0005BC0002801615
:091382007498C0E07413C0E090FF
:0D138B00E0A9E0C0E0A3E0C0E085F9822207
:0E13980090E309E0604B90E2C7E0FAA3E0FBAF
:0E13A600A3E0FCA3E0FDAEE27F00A9E3E42E8D
:0E13B400FEE93FFF90E2F3E0F8A3E0F9EEC39C
:0E13C20098FEEF99FFE4F8F9EE2AFAEF3BFBF4
:0E13D000E83CFCE93DFD90E2C7EAF0A3EBF03B
:0B13DE00A3ECF0A3EDF090E309E4F0B5
:0E13E900D0D0D001D000D007D006D005D0045F
:0D13F700D003D002D083D082D0F0D0E0D05F
:02140400203294
:0114060032B3
:0A140700C008E581F5082408F5810E
:09141100E582FA20E0030214AAAE
:0E141A0090E0ABE0FB90E0ACE0FCEB6C30E06F
:0E1428001DABE27C00AEE3E4FD2BFBEE3CFCD2
:0E14360090E2F5EBF0A3ECF090E30A7401F005
:021444008064C2
:0C14460090E30AE0605EC00290E2CBA8D8
:0C1452000808E0F6A3E008F6A3E008F6A6
:0E145E00A3E008F6ACE27D00AEE38E03E42CC2
:0E146C00FFEB3DFB90E2F5E0FCA3E0FDEFC3DB
:0C147A009CFFEB9DFB7C007D00A8080897
:0E148600EF26FFEB0836FBEC0836FCED0836CF
:0E149400FD90E2CBEFF0A3EBF0A3ECF0A3EDA4
:0814A200F090E30AE4F0D0022F
:0714AA00EA20E103021542F4
:0E14B10090E0ABE0FB90E0ACE0FCEB6C30E1D7
:0E14BF001DABE27C00AEE3E4FD2BFBEE3CFC3B
:0E14CD0090E2F7EBF0A3ECF090E30B7401F06B
:0214DB0080652A
:0C14DD0090E30BE0605FC00290E2CFE5FE
:0C14E900082405F8E0F6A3E008F6A3E0F4
:0E14F50008F6A3E008F6ABE27C00AFE3E42BC0
:0E150300FBEF3CFC90E2F7E0FAA3E0FFEBC345
:0C1511009AFAEC9FFFE4FBFCE5082405BF
:0E151D00F8EA26FAEF0836FFEB0836FBEC087A
:0E152B0036FC90E2CFEAF0A3EFF0A3EBF0A3C2
:09153900ECF090E30BE4F0D002A9
:07154200EA20E2030215D3C9
:0E15490090E0ABE0FA90E0ACE0FBEA6B30E241
:0E1557001DAAE27B00ADE3E4FC2AFAED3BFBAB
:0E15650090E2F9EAF0A3EBF090E30C7401F0D1
:02157300805E98
:0A15750090E30CE0605890E2D3A868
:0C157F000808E0F6A3E008F6A3E008F678
:0E158B00A3E008F6AAE27B00AFE3E42AFAEF41
:0E1599003BFB90E2F9E0FEA3E0FFEAC39EFEFA
:0C15A700EB9FFF7A007B00A80808EE26EE
:0E15B300FEEF0836FFEA0836FAEB0836FB902A
:0E15C100E2D3EEF0A3EFF0A3EAF0A3EBF0907C
:0415CF00E30CE4F055
:0E15D30090E0ACE0FA90E0ABE062028A821297
:0615E10044F6850881D0EC
:0215E7000822D8
:0915E9001244DA90E0ACE4F09049
:0415F200E0ABF02258
:0E15F60090E0ACE0FA90E0ABE06202EAF4FABA
:0E160400F582C00212164B900190124BAED030
:06161200028A8202164B61
:031618000244DBAE
:0D161B00AA8290E0ABE0FBF4FCEA520490E0
:0A162800E0ABEA4BF08C82021407DD
:0D163200AA8290E0ABE0FBEA5BFCEAF490DA
:09163F00E0AB5BF08C82021407A1
:0316480002164B3C
:0D164B00AA8290E0ACE06AF08A82021407E7
:0E165800AA82AB83EA4B600675820102161B64
:061666007582010216323C
:0E166C00AA82AB83EA4B600675820202161B4F
:06167A0075820202163227
:0E168000AA82AB83EA4B600675820402161B39
:06168E0075820402163211
:0416940085C9C92219
:0416980043C9082218
:0E169C00740F55C944A0F5C9740F55C94450C8
:0316AA00F5C9225D
:0316AD0002169C86
:0516B00075C903C2AF83
:0416B500000216B564
:0A16B900C008E581F5082407F5815B
:0E16C30090E0ADE0FAA3E0FBA3E0FCEA4B4CA4
:0C16D100700A90E0B0E4F0A3F0021850A2
:0C16DD00124C00AA82AB83E5082403F83D
:0E16E900A60208A60390E0ADE0FCA3E0FDA37E
:0C16F700E0FEE5082405F8A60408A6059E
:0C17030008A606E5082405F88682088682
:0E170F00830886F0126C3CFFA3126C3CFAE5D6
:0C171D00082405F8740226FBE40836FCE2
:0E1729000886058B828C838DF0126C3CFBA32E
:0C173700126C3CFCEB2FFFEC3AFAE508CA
:0C1743002403F8EFC396FFEA0896FAA80A
:0A174F000808A60708A602E5082412
:0E17590005F8740426FCE40836FD0886068CAC
:0E176700828D838EF0126C3CFCA3126C3CFD54
:0C177500A3126C3CFEE5082405F8A60455
:0617810008A60508A606FB
:0C178700E5082405F8B6000B08B60007C2
:0717930008B6000302183C38
:0C179A00E5082405F8868208868308868E
:0B17A600F0126C3CFCA3126C3CFDE553
:0C17B100082405F8740226FEE40836FF48
:0E17BD000886028E828F838AF0126C3CFAA39B
:0C17CB00126C3CFBEA2CFEEB3DFFE50835
:0C17D7002403F8EEC396FEEF0896FFA86E
:0C17E3000808C3EE96EF0896501BEA2C95
:0C17EF00FCEB3DFDE5082403F8ECC3967C
:0C17FB00FCED0896FDA80808A60408A64E
:0118070005DB
:0C180800E5082405F8740426FAE408360C
:0E181400FB0886048A828B838CF0126C3CFAEF
:0B182200A3126C3CFBA3126C3CFCE525
:0C182D00082405F8A60208A60308A6047B
:031839000217870C
:09183C00E5082403F8A90809904D
:0B184500E0B0E726F009E70836A3F04A
:06185000850881D008228A
:0A185600C008E581F508240CF581B7
:0E186000AA82AB83ACF07D01126C3CFEA31299
:0B186E006C3CFFBE0005BF0002800BB9
:08187900BE5A05BF0002801EEB
:03188100021C4303
:0918840090E0ADE4F0A3F0A3F044
:0E188D007D008A828B838CF0745A124423A350
:04189B00E4124423EC
:09189F00ED7006758201021C5572
:0A18A800E50824FDF8B6870280036E
:0318B200021A4DCA
:0C18B500E50824FAF88605088606088677
:0C18C10007E5082407F8A60508A606089D
:0218CD00A6076C
:0E18CF0090E0ADE0FDA3E0FEA3E0FFED4E4F84
:0E18DD00606EC002C003C00474072DFAE43E22
:0E18EB00FB8F048A828B838CF0126C3CFAA374
:0A18F900126C3CFBA3126C3CFCE5F2
:0C190300082407F8E6B5020C08E6B5035E
:08190F000708E6B50402800898
:08191700D004D003D002802EA1
:0E191F00D004D003D00274042DFDE43EFE8DF2
:0E192D00828E838FF0126C3CFDA3126C3CFE88
:0E193B00A3126C3CFF90E0ADEDF0A3EEF0A324
:04194900EFF08082B9
:0E194D0090E0ADE0FDA3E0FEA3E0FFED4E4F05
:05195B00700302188D6D
:0B196000A80808A60508A60608A607B0
:0C196B00A80808740426FDE40836FE08F5
:0C19770086078D828E838FF0E508240A1D
:0D198300F8126C3CF6A3126C3C08F6A3129F
:0C1990006C3C08F6E508240AF8E608465E
:07199C000846700302188DDC
:0C19A300C002C003C004E508240AF87468
:0E19AF000726FAE40836FB0886048A828B833A
:0D19BD008CF0126C3CFAA3126C3CFBA312E0
:0C19CA006C3CFCE5082407F8E6B5020CB4
:0C19D60008E6B5030708E6B50402800827
:0819E200D004D003D0028041C3
:0C19EA00E508240AF8740426FAE4083624
:0E19F600FB0886048A828B838CF0126C3CFA0C
:0E1A0400A3126C3CFBA3126C3CFC8D828E8303
:0E1A12008FF0EA124423A3EB124423A3EC123C
:0B1A20004423D004D003D00202196B55
:0E1A2B008D828E838FF0126C3CFDA3126C3CFA
:0C1A3900FEA3126C3CFFA80808A60508DC
:081A4500A60608A60702196BB2
:0A1A4D00E50824FDF8B682028003CC
:031A570002188DE5
:0C1A5A00E5082404F8E4F608F60876001D
:0C1A660090E0ADE0FDA3E0FEA3E0FFA8CF
:0A1A72000808A60508A60608A60746
:0C1A7C00A80808B6000B08B6000708B662
:051A8800000302188DAF
:0C1A8D00A8080886820886830886F0C03E
:0E1A990002C003C004124022E5828583F0D013
:0C1AA70004D003D00245F07003021C01C3
:0C1AB300C002C003C004A8080874072685
:0E1ABF00FDE40836FE0886078D828E838FF0C8
:0B1ACD00126C3CFAA3126C3CFBA3124D
:0C1AD8006C3CFCC004C005C006C007A8A0
:0C1AE4000808E6C0E008E6C0E008E6C024
:0E1AF000E07488C0E08A828B838CF0122D3364
:0E1AFE00AA82AB83E58124FCF581D007D006D7
:0E1B0C00D005D004EA4BD004D003D002600311
:031B1A00021BF2B9
:0D1B1D008D828E838FF0E4124423A3E41226
:081B2A004423A3E4124423E567
:0C1B3200082404F8E6084608466054C089
:0C1B3E0002C003C004E5082404F874048D
:0C1B4A0026FDE40836FE088607A80808FF
:0E1B5600740426FAE40836FB0886048A828BA3
:0E1B6400838CF0126C3CFAA3126C3CFBA312B3
:0E1B72006C3CFC8D828E838FF0EA124423A31C
:0E1B8000EB124423A3EC124423D004D003D074
:031B8E0002802DA5
:0C1B9100A80808740426FDE40836FE08CD
:0E1B9D0086078D828E838FF0126C3CFDA312A2
:091BAB006C3CFEA3126C3CFF909F
:0A1BB400E0ADEDF0A3EEF0A3EFF0BA
:0C1BBE00A80808740426FDE40836FE08A0
:0E1BCA0086078D828E838FF0E4124423A3E4FD
:0E1BD800124423A3E4124423C002C003C0043D
:0C1BE6001216B9D004D003D002021A5A23
:0E1BF200C002C003C004121C5BD004D003D09C
:011C000002E1
:0A1C0100A80808E5082404F9E6F736
:0C1C0B000809E6F70809E6F7A8080874C5
:0E1C17000426FDE40836FE0886078D828E83C3
:0D1C25008FF0126C3CFDA3126C3CFEA3126C
:0C1C32006C3CFFA80808A60508A60608E0
:051C3E00A607021A7C5C
:0D1C43008A828B838CF0E4124423A3E41208
:051C500044237582032E
:061C5500850881D0082281
:091C5B0090EC2475F000022DFE4E
:0A1C6400C008858108C082C083C05B
:0C1C6E00F0121C5BA80808740726FDE4B7
:0D1C7A000836FE0886078D828E838FF012DB
:0A1C87006C3CFAA3126C3CFBA312A4
:0E1C91006C3CFCEA4B4C606290E0ADE0FAA3C4
:051C9F00E0FBA3E0FCE6
:0B1CA400BA0008BB0005BC0002804C29
:0C1CAF00A80808E6B5020C08E6B503071B
:071CBB0008E6B504028002F7
:021CC20080069A
:061CC4001216B9021D5AC0
:0E1CCA00C005C006C00774042AFDE43BFE8C72
:0D1CD800078D828E838FF0126C3CFDA312ED
:0E1CE5006C3CFEA3126C3CFF8D028E038F043C
:081CF300D007D006D00580A93E
:0E1CFB0090EC45E0FAA3E0FBA3E0FC8D828EA6
:0E1D0900838FF0EA124423A3EB124423A3ECD1
:0C1D1700124423A80808740426FAE4080B
:0E1D230036FB08860490E0ADE0FDA3E0FEA3D1
:0E1D3100E0FF8A828B838CF0ED124423A3EE38
:091D3F00124423A3EF124423A86F
:0C1D4800080890E0ADE6F008A3E6F00803
:061D5400A3E6F01216B92F
:061D5A00850881D008227B
:0A1D6000C008858108AA82AB83AC9D
:0C1D6A00F0C002C003C004E50824FCF82F
:0E1D7600E6C0E008E6C0E08A828B838CF012A3
:0E1D84003F7015811581D004D003D0028A82F1
:0A1D92008B838CF0121C64D0082231
:0D1D9C00AA82AB83ACF0C002C003C00412E9
:0E1DA9003FBED004D003D0028A828B838CF020
:031DB700021C64A7
:0D1DBA00AA82AB83ACF0C002C003C00412CB
:0E1DC7003FFAD004D003D0028A828B838CF0C6
:031DD500021C6489
:0A1DD800C008858108C082C083C0E6
:0C1DE200F0A8080886820886830886F0B6
:0A1DEE00126C3CFDA3126C3CFEE5F4
:0C1DF8000824FCF88607088602EF2DFD89
:0C1E0400EA3EFEA80808868208868308D3
:0C1E100086F0ED124423A3EE12442312CE
:061E1C0016B9850881D013
:021E2200082294
:0E1E2400AA82AB83ACF074072AFAE43BFB8A77
:0E1E3200828B838CF0126C3CFAA3126C3CFB8A
:0E1E4000A3126C3CFCE4BA0007BB0004BC001B
:021E4E0001048D
:091E5000FA3395E08A82F5832241
:0E1E5900AA82AB83ACF0126C3CFDA3126C3C71
:0E1E6700FE74022AFAE43BFB8A828B838CF025
:0E1E7500126C3CFAA3126C3CFBEA2DFDEB3E16
:051E83008D82F58322B1
:0D1E8800126C3CFAA3126C3C8A82F5832296
:0E1E950090E0ADE0FAA3E0FBA3E0FCE4BA00AD
:081EA30007BB0004BC000104B0
:041EAB00FAB4010084
:0A1EAF00E433FA7B008A828B832261
:0D1EB900121E95E5828583F045F0600A90C9
:091EC600E0B0E0FAA3E0FB8004A7
:041ECF007A007B001A
:051ED3008A828B8322CE
:0A1ED800C008858108C082C083C0E5
:0D1EE200F090E0ADE0FDA3E0FEA3E0FFA85E
:0C1EEF000808E6B5050C08E6B506070873
:061EFB00E6B507028002BB
:021F0100802E30
:0E1F030074042DFAE43EFB8F048A828B838CDB
:0C1F1100F0126C3CFAA3126C3CFBA31213
:0E1F1D006C3CFC90E0ADEAF0A3EBF0A3ECF01E
:061F2B001216B9021FB9F5
:0B1F3100BD0008BE0005BF00028038A4
:0E1F3C0074042DFAE43EFB8F048A828B838CA2
:0C1F4A00F0126C3CFAA3126C3CFBA312DA
:0C1F56006C3CFCA80808E6B5020C08E68C
:0A1F6200B5030708E6B50402800885
:081F6C008A058B068C0780BD7D
:0D1F7400ED4E4F604074042DFDE43EFEA8CC
:0C1F81000808740426FAE40836FB088601
:0D1F8D00048A828B838CF0126C3CFAA31244
:0E1F9A006C3CFBA3126C3CFC8D828E838FF09E
:0C1FA800EA124423A3EB124423A3EC1222
:051FB40044231216B9E0
:0C1FB900A80808740426FAE40836FB08A7
:0E1FC50086048A828B838CF0E4124423A3E40A
:091FD300124423A3E4124423A8E4
:0C1FDC000808740726FAE40836FB0886A3
:0E1FE800048A828B838CF0E4124423A3E4125B
:081FF6004423A3E412442385F7
:051FFE000881D008225B
:09A90700000000561800000000D9
:09200300122F39AA82AB83ACF064
:0E200C00EA4B4C605E74052AFDE43BFE8C0737
:0E201A008D828E838FF0126C3CFDA3126C3C05
:0E202800FEC002C003C004C005C0067401C0A3
:0A203600E0E4C0E0744AC0E074204A
:0A204000C0E0C005C0069000812238
:0E204A0015811581D006D005D004D003D00238
:0E2058008A828B838CF0122F4BAD82AE83AF49
:09206600F08D028E038F04809DB1
:0E206F00AAE27B00ADE37C00EC2AFAED3BFB1D
:0E207D0090E303EAF0A3EBF090E3117401F09E
:01208B002232
:0A208C00C008E581F5082404F58181
:09209600122F39AA82AB83ACF0D1
:0E209F00EA4B4C605C74052AFDE43BFE8C07A6
:0E20AD008D828E838FF0126C3CFDA3126C3C72
:0E20BB00FEC002C003C004C005C006E4C0E0C1
:0A20C900C0E074DBC0E07420C0E04A
:0820D300C005C0069000812247
:0E20DB0015811581D006D005D004D003D002A7
:0E20E9008A828B838CF0122F4BAD82AE83AFB8
:0920F700F08D028E038F04809F1E
:0A21000090E311E0605A90E2E7A8B6
:0C210A000808E0F6A3E008F6A3E008F6E1
:0E211600A3E008F6AAE27B00AFE37E00EE2A0B
:0E212400FAEF3BFB90E303E0FEA3E0FFEAC30B
:0C2132009EFEEB9FFF7A007B00A80808CF
:0E213E00EE26FEEF0836FFEA0836FAEB08360A
:0E214C00FB90E2E7EEF0A3EFF0A3EAF0A3EBC6
:06215A00F090E311E4F037
:06216000850881D0082271
:03A91000B5A88067
:03A913001CA880FD
:06A9160025A880000000EE
:06216600122385BC0003FA
:03216C00025ECF41
:08216F00EF60FA30D502B2D195
:08217700E583B4FF03025EE5FD
:08217F00E582B4FF03025EE5F6
:0B218700258340072482400B025ECF3E
:082192002483145003025EE5F2
:0E219A00F582EA8DF0A4A8F0EA8EF0A428F8F1
:0E21A800E435F0F9EB8DF0A428E935F0F9E408
:0E21B60033CA8FF0A429F9EA35F0FAEBF88E5F
:0E21C400F0A429F9EA35F0FAE433FBEC8DF0D3
:0E21D200A429F9EA35F0FAE43BFBE88FF0A40B
:0E21E0002AFAEB35F0FBE433CCFD8EF0A42A96
:0E21EE00FAEB35F0FBE43CFCED8FF0A42BFB8C
:0A21FC00EC35F0FC20E703122E6C16
:03220600025EAEC7
:03220900023ADABC
:0A220C00C00885810805810581AA3C
:0C22160082AB83ACF0A80808E4F608F6E0
:0E22220090E0B6E0FFA3E0FDA3E0FEEF4D4E1E
:0A2230007008A8080876010876007F
:0E223A0074022AFDE43BFE8C078D828E838F9A
:0C224800F0E50824F8F8E6124423A3088F
:0E225400E612442374042AFDE43BFE8C078D41
:0C226200828E838FF0E50824F5F8E61268
:0C226E004423A308E6124423A308E61250
:0C227A0044238A828B838CF0E50824FC4E
:0C228600F8E6124423A308E6124423905B
:0C229200E0B6EAF0A3EBF0A3ECF0A80823
:0C229E0008B6011108B6000DE50824FC8C
:0922AA00F88682088683123AF3DB
:0922B300900000850881D008228A
:0A22BC00C008858108058105810531
:0E22C6008190E0B6E0FAA3E0FBA3E0FCEA4B57
:0622D4004C700302237FA1
:0C22DA00A80808A60208A60308A60490A5
:0C22E600E0B6E4F0A3F0A3F0A808087430
:0E22F2000226FDE40836FE0886078D828E83E4
:0C2300008FF0126C3CFDA3126C3CFEA898
:0C230C000808740426FFE40836FA08866E
:0D231800038F828A838BF0126C3CFFA312AE
:0E2325006C3CFAA3126C3CFBC005C006C0075E
:0A233300C002C003744FC0E0742321
:0C233D00C0E0C005C006A80808868208A1
:0623490086830886F022E5
:0E234F00158115811581D006D00590E0B6E00D
:0E235D00FAA3E0FBA3E0FCEA4B4C60168A8278
:0E236B008B838CF0126C3CFAA3126C3CFB8A44
:06237900828B83123AF38F
:06237F00850881D0082250
:0D238500AA82AB83A2F73392D16002D2F797
:0E239200F582ACF0E58124F9F8E6FD08E6FEE0
:0E23A0000886F008E6A2F73392D56002D2F765
:0523AE00F583AFF022F1
:0D23B30043FE0A43FD0443F3E075820E0271
:0223C00023C236
:0C23C200AA827B01C0E0C0A8C2AF7C0072
:0323CE00BC080048
:0E23D1005025EB5AFDEC6010ED600D8CF00510
:0423DF00F0ED80029B
:0223E300C31322
:0423E500D5F0FBFD37
:0E23E900ED24FF9282D293C293EB2BFB0C806B
:0123F700D60F
:0E23F800D291C291D0E053E080E5E042A8D03F
:07240600E090E0B9EAF022CA
:07240D0090E0B9E0F5822226
:0600B400E478FFF6D8FD20
:0501090090E141E4F06B
:0E241400AA8290E141E0FB701DC00290E0BA88
:0E24220075F000125033AB82AC831581EB4C89
:0A243000702590E1417401F0801D59
:0E243A00BA0D1AC00290E0BA75F000125033CD
:0E244800AA82AB831581EA4B600590E141E466
:01245600F095
:0D24570090EC3975F000122DFE900001226E
:0A246400C008858108AA82AB83AC92
:0E246E00F07D01126C3CFEA3126C3CFFBE0020
:06247C0005BF0002801400
:08248200BE6605BF000280598F
:09248A00BE7506BF000302257CAB
:0324930002258F90
:0E249600C002C003C0041225D9E582D004D0D4
:0E24A40003D00290E140F090E1C2E4F0A3F01A
:0D24B20090E0BA75F000C002C003C0041233
:0E24BF005140AE82AF83D004D003D002BEFFE6
:0E24CD001EBFFF1B7D008A828B838CF074661D
:0824DB00124423A3E412442380
:0924E300ED70CC7582010225A107
:0E24EC00C002C003C00490E1C4EEF0A3E4F00F
:0B24FA00C002C003C00474C4C0E07442
:0C250500E1C0E0E4C0E090E140E0C0E094
:0E25110090000075F000122D33E58124FCF5DA
:0E251F0081D004D003D00290EC45E0FEA3E092
:0E252D00FFA3E0FAC004E4C0E0C0E0C0E07428
:0E253B0085C0E08E828F838AF0122D33AA8233
:0E254900AB83E58124FCF581D004BA0005BB0C
:0425570000028009F5
:09255B00D004D003D0020224B226
:0E256400D004D003D0027D008A828B838CF0DD
:0A2572007475124423A3E4124423FD
:0C257C00ED600BE50824FDF8B6850302B5
:0225880024B27B
:05258A007582018012C2
:0D258F008A828B838CF0E4124423A3E412B3
:05259C004423758203D9
:0325A100D008223D
:0A25A4007480C0E074C0C0E074E071
:0E25AE00C0E0E4C0E090E0BA75F000124FB457
:0E25BC00E58124FCF581E4C0E0C0E0C0E090C1
:0E25CA00EC3975F0001225E61581158115819A
:0125D80022E0
:09A91C00000000642400000000AA
:0D25D90090E1C6E0FA90E1C604F08A82228B
:0A25E600C008858108C082C083C0D0
:0E25F000F090EC42E0FDA3E0FEA3E0FF8D02C0
:0425FE008E038F04B5
:0C260200A80808E6B5020C08E6B50307BE
:07260E0008E6B5040280217B
:0B261500BA0008BB0005BC00028016E4
:0E2620008A828B838CF0126C3CFAA3126C3C05
:08262E00FBA3126C3CFC80CC04
:0C263600A80808E6B5020C08E6B503078A
:0726420008E6B50402800266
:0226490080030C
:03264B000226D58F
:0C264E00A8080886820886830886F0ED44
:0B265A00124423A3EE124423A3EF124E
:062665004423A8080890C0
:0D266B00EC42E6F008A3E6F008A3E6F0A8B4
:0C2678000808740726FAE40836FB088600
:0D268400048A828B838CF07401124423A819
:0C2691000808740526FAE40836FB0886E9
:0E269D00048A828B838CF0E4124423A3E4129F
:0C26AB004423E50824FBF8E6C0E008E644
:0C26B700C0E008E6C0E07481C0E0A808A4
:0E26C3000886820886830886F0122DA7E5811E
:0426D10024FCF5816F
:0626D500850881D00822F7
:0A26DB00C008858108C082C083C0DA
:0E26E500F0E5812409F58190EC45E0FDA3E0CD
:0C26F300FEA3E0FFE5082407F8A6050898
:0C26FF00A60608A607A808088682088620
:0E270B00830886F0122E42E5828583F045F0A9
:052719007003022861BD
:0C271E00A80808740726FDE40836FE0831
:0D272A0086078D828E838FF0E41244239089
:0C273700EC42E0FDA3E0FEA3E0FFE5089B
:0B2743002404F8A60508A60608A60757
:0C274E00E5082404F8B6000A08B60006EE
:06275A0008B600028069D0
:0A276000A80808E5082404F986F033
:0E276A00E7B5F0120886F009E7B5F00A088618
:08277800F009E7B5F00280282A
:0C278000A80808E6C0E008E6C0E008E693
:0C278C00C0E07487C0E0E5082404F88673
:0E279800820886830886F0122956E58124FC0B
:0227A600F581BB
:0C27A800E5082404F88682088683088671
:0E27B400F0126C3C1818F6A3126C3C08F6A349
:0727C200126C3C08F6808553
:0C27C900A80808740326FDE40836FE088A
:0E27D50086078D828E838FF0126C3CFAA31261
:0E27E3006C3CFB8A058B067F80BD0008BE00A3
:0627F10005BF0002806A32
:0A27F700A80808E50824FBF986F0A5
:0E280100E7B5F0120886F009E7B5F00A088680
:08280F00F009E7B5F002804A70
:0C281700A8080890EC45E6F008A3E6F0E5
:0C28230008A3E6F0A80808740526FDE4F0
:0E282F000836FE088607C002C003E4C0E0C001
:0C283D00E0C0E07483C0E07457C0E07499
:0C28490028C0E0C002C0038D828E838F87
:02285500F0226F
:0A285700E58124FCF581D003D002D6
:0C28610090EC42E0FAA3E0FBA3E0FCA82E
:0C286D000808E6B5020C08E6B5030708F1
:06287900E6B50402800236
:02287F008022B5
:0E2881008A828B838CF0126C3CFDA3126C3C9F
:0E288F00FEA3126C3CFF90EC42EDF0A3EEF0C5
:06289D00A3EFF002293E4A
:0C28A3008A058B068C07E5082404F8A6C3
:0728AF000508A60608A607B4
:0C28B600E5082404F8B6000A08B6000685
:0628C20008B6000280765A
:0C28C800E5082404F88682088683088650
:0C28D400F0126C3CFDA3126C3CFEA31241
:0C28E0006C3CFFA80808E6B5050C08E6F3
:0A28EC00B5060708E6B507028002F2
:0228F60080362A
:0C28F800A8080886820886830886F01273
:0A2904006C3CFAA3126C3CFBA3121A
:0C290E006C3CFCE5082404F88682088676
:0E291A00830886F0EA124423A3EB124423A3A1
:06292800EC1244238010B4
:0C292E00E5082404F8A60508A60608A683
:04293A00070228B6B2
:0C293E00E5082407F890EC45E6F008A33B
:0A294A00E6F008A3E6F0850881D04E
:02295400082257
:0A295600C008858108C082C083C05C
:0C296000F0A80808740726FDE40836FE05
:0E296C000886078D828E838FF0126C3CFA2055
:05297A00E003022A8ABF
:0C297F00C005C006C007A80808740326A5
:0E298B00FAE40836FB0886048A828B838CF0FF
:0E299900126C3CFAA3126C3CFB8A048B057E88
:0E29A70080BC000FBD000CBE0009D007D0069A
:0529B500D005022A8A92
:0C29BA00D007D006D005A8080890EC4516
:0E29C600E6F008A3E6F008A3E6F08D828E830B
:0E29D4008FF07402124423C005C006C007A88D
:0C29E2000808740526FCE40836FD088691
:0C29EE0006C003C005C006C007E50824B1
:0E29FA00FAF8E6C0E008E6C0E008E6C0E0E556
:0A2A08000824FDF8E6C0E07422C0C7
:0C2A1200E0742AC0E0C002C0038C828D7A
:042A1E00838EF02291
:0E2A2200AA82E58124FCF581D007D006D005FC
:0E2A3000D003EA3395E0FBBA020BBB0008D0DE
:072A3E0007D006D005801649
:0E2A4500D007D006D005BA0305BB00028008FA
:082A5300E50824FDF8B6832418
:0C2A5B00A80808E6C0E008E6C0E008E6B5
:0C2A6700C0E0A808088682088683088664
:0C2A7300F01226DB158115811581800B07
:0B2A7F008D828E838FF07401124423BF
:062A8A00850881D008223E
:0E2A9000AA82AB83ACF090EC45E0C0E0A3E07E
:0D2A9E00C0E0A3E0C0E08A828B838CF012C0
:092AAB0026DB158115811581223D
:0C2AB40090E1C6748AF090E1C8E4F09054
:0C2AC000E1C7F090EC42F0A3F0A3F0900E
:092ACC00EC45E4F0A3F0A3F022B4
:0A2AD500C008858108058105810510
:0E2ADF008190E2A9E4F090EC42E0FAA3E0FB63
:0C2AED00A3E0FCA80808A60208A6030845
:022AF900A60431
:0C2AFB00A80808B6000B08B6000708B6D3
:052B07000003022B8712
:0C2B0C00A80808740826FDE40836FE083E
:0E2B180086078D828E838FF0126C3C6042A87F
:0C2B26000808740726FAE40836FB08864D
:0E2B3200048A828B838CF074011244238D82FE
:0E2B40008E838FF0E4124423E4C0E0C0E0C0B6
:0C2B4E00E07482C0E0A8080886820886B7
:0D2B5A00830886F0122956E58124FCF581E0
:0C2B6700A8080886820886830886F01201
:0D2B73006C3C1818F6A3126C3C08F6A31277
:072B80006C3C08F6022AFB81
:062B8700850881D0082240
:082B8D0090E1C7E0FA7001229B
:0C2B950090E1C8E0FB75F007A4FC24C927
:0C2BA100F582E434E1F583E090E2AAF054
:0A2BAD00EC24C9FCE434E1FD8C8245
:0E2BB7008D83A3E0FEA3E0FFA3E0F890E2AB65
:0E2BC500EEF0A3EFF0A3E8F08C828D83A3A3C3
:0E2BD300A3A3E0FCA3E0FDA3E0FE90E2AEECC5
:0E2BE100F0A3EDF0A3EEF07C000BBB00010CA6
:0E2BEF00C0027420C0E0E4C0E08B828C831230
:0E2BFD006C58AB8215811581D00290E1C8EBB7
:0E2C0B00F0EA1490E1C7F090E2AEE0FAA3E028
:0E2C1900FBA3E0FCBA0008BB0005BC00028073
:012C270003A9
:032C2800022CBAC1
:0E2C2B0090EC42E0FDA3E0FEA3E0FF90E2B1DA
:082C3900EDF0A3EEF0A3EFF0B3
:0E2C410090E2B1E0FDA3E0FEA3E0FFBD0007BE
:072C4F00BE0004BF000122DA
:0A2C560090E2A9E0FD6003122AD508
:0E2C600090E2B1E0FDA3E0FEA3E0FF90E2AB46
:0E2C6E00E0C0E0A3E0C0E0A3E0C0E090E2AA76
:0E2C7C00E0C0E08D828E838FF0122956E58134
:0E2C8A0024FCF58190E2B1E0FDA3E0FEA3E0A2
:0D2C9800FF8D828E838FF0126C3CFDA31225
:092CA5006C3CFEA3126C3CFF9094
:0C2CAE00E2B1EDF0A3EEF0A3EFF08087A0
:0E2CBA0090E2AAE0FDBD811474072AFEE43BFF
:0E2CC800FF8C008E828F8388F07401124423EB
:0E2CD60090E2ABE0C0E0A3E0C0E0A3E0C0E00D
:0E2CE400C0058A828B838CF0122956E581246C
:042CF200FCF581224A
:0A2CF60090E2A9E0FA6003122AD56B
:0B2D0000122B8D90E1C7E0FA7B0090E1
:0E2D0B00E2A9E0FC7D00EC2AFAED3B8A82F59D
:022D1900832213
:0E2D1B0090E1C7E0FA7B0090E2A9E0FC7D00A9
:0A2D2900EC2AFAED3B8A82F58322C2
:0A2D3300C008858108AA82AB83ACBA
:0E2D3D00F090E1C7E0FDBD2005900001805937
:0E2D4B0090E1C8E0FEED2E541FFE90E2B4F0C1
:0C2D5900EE75F007A4FE24C9F582E434F6
:0A2D6500E1F583E50824FDF8E6F02F
:0A2D6F00EE24C9FEE434E1FF8E8279
:0C2D79008F83A3E50824FAF8E6F0A30815
:0E2D8500E6F0A308E6F08E828F83A3A3A3A33B
:0E2D9300EAF0A3EBF0A3ECF090E1C7ED04F042
:032DA1009000009F
:032DA400D0082232
:0A2DA700C008858108AA82AB83AC46
:0E2DB100F090EC45E0FDA3E0FEA3E0FFC005BE
:0C2DBF00C006C007E50824FAF8E6C0E0F2
:0C2DCB0008E6C0E008E6C0E0E50824FDD2
:0E2DD700F8E6C0E08A828B838CF0122956E564
:0E2DE5008124FCF581D007D006D00590EC4586
:0B2DF300EDF0A3EEF0A3EFF0D00822FB
:0E2DFE00AA82AB83ACF0BA0007BB0004BC0095
:022E0C000122A1
:0E2E0E0074072AFDE43BFE8C078D828E838FB5
:0A2E1C00F0126C3CFDBD01028003C2
:032E2600BD0218D2
:0E2E290074082AFAE43BFB8A828B838CF074D7
:0A2E37000112442390E2A97401F097
:012E4100226E
:0E2E4200AA82AB83ACF074072AFAE43BFB8A49
:0E2E5000828B838CF0126C3CFAE4BA00010411
:042E5E00FAB40100C1
:0A2E6200E433FA7B008A828B83229E
:03A925000000002F
:03A928000000002C
:022E6C007804E8
:0E2E6E00EC700DC9CACBFCE58224F8F582D8C1
:022E7C00F12241
:022E7E007820BA
:0E2E800020E7111582C3E933F9EA33FAEB3388
:062E8E00FBEC33FCD8EC64
:012E9400221B
:0A2E9500C008858108C082C083C018
:0C2E9F00F005810581E4FDFEE508240437
:092EAB00F8E4F608F67B007C0057
:0C2EB400C005C00690E2B6E0FD7E00E51F
:0C2EC000082404F8C3E69D08E664808E38
:0E2ECC00F063F08095F0D006D0055057C00599
:0A2EDA00C006EB242DF582EC34EC69
:0C2EE400F583E0FDA3E0FEA3E0FAA808DF
:0E2EF00008E6B5050C08E6B5060708E6B502CB
:032EFE0002800649
:062F0100D006D005800A95
:0A2F0700D006D0058D828E83802253
:0C2F110074032BFBE43CFCE5082404F8EE
:062F1D0006B600020806E2
:0C2F2300E5082404F88605088606808571
:042F2F008D828E837E
:062F3300850881D0082290
:0E2F390090EC2DE0FAA3E0FBA3E0FC8A828B73
:042F4700838CF02265
:0E2F4B00122E95E5828583F02401FAE435F01C
:0E2F5900FBC002C00390000312443CAA82ABEE
:0C2F67008315811581EA242DF582EB34DE
:0C2F7300ECF583E0FAA3E0FBA3E0FC8A8D
:062F7F00828B838CF0221E
:0C2F8500122E95AA82AB83EA24B2FAEB6C
:0C2F910034E0FB8A828B83E0FC43048068
:0D2F9D008A828B83ECF090EC4875F0000206
:022FAA002DFEFA
:0A2FAC00C008858108C082C083C000
:0C2FB600F0E5812408F581A80808868257
:0C2FC2000886830886F0126A04C8E5083F
:0E2FCE002404C8A68208A6837F007D007E0032
:022FDC007A0079
:0E2FDE0090E2B6E0FB7C00C3EF9BED64808CBC
:0B2FEC00F063F08095F0400302309A83
:0B2FF700C007C005EE242DF582EA346F
:0C300200ECF583E0FBA3E0FCA3E0FD8BF9
:0E300E00828C838DF0126C3CFBA3126C3CFC98
:0E301C00A3126C3CFDC002C005C006C007E553
:0C302A00082404F8E6C0E008E6C0E0C09E
:0C30360003C004C005A8080886820886B4
:0E304200830886F012558BAB82AC83E58124A7
:0E305000FBF581D007D006D005D002D005D008
:0C305E0007EB4C7028EE242DF582EA34BC
:0A306A00ECF583E5082406F8E0F613
:0C307400A3E008F6A3E008F6E508240637
:0B308000F886820886830886F0801521
:0C308B0074032EFEE43AFA0FBF00010DA2
:03309700022FDE27
:06309A0090000075F0003B
:0630A000850881D0082222
:0A30A600C008858108058105810539
:0E30B00081AA82AB83ACF07D01126C3CFEA3C2
:0C30BE00126C3CFFBE0005BF0002801534
:0930CA00BE7806BF00030231CEFE
:0930D300BE7F06BF00030232A318
:0330DC00023306B6
:0E30DF00C002C003C0041225D9E582D004D07F
:0E30ED0003D00290E2B5F090E2B7E4F0A3F059
:0E30FB00C002C003C00490E2B7E0FEA3E0FFF5
:0E310900C004C006C007C006C0079000031235
:0E311700443CAA82AB8315811581D007D006F7
:0A312500D004EA242DF582EB34EC0F
:0C312F00F583A80808E0F6A3E008F6A36A
:0C313B00E008F6A80808B6001008B6006E
:0D3147000C08B60008D004D003D00280634D
:0A315400EE24B2F582EF34E0F583BB
:0C315E00E4F0A80808740526FAE408361E
:0E316A00FB0886048A828B838CF0126C3CFA80
:0E317800A3126C3CFBC002C003C004E4C0E024
:0A318600C0E07498C0E07431C0E0AE
:08319000C002C0039000802280
:0E31980015811581D004D003D00290E2B7E07B
:0E31A6002401F0A3E03400F0D004D003D002E6
:0331B4000230FBEB
:0531B70090E2B6EEF00D
:0E31BC007D008A828B838CF07478124423A3EA
:0431CA00E4124423A4
:0931CE00ED700675820102331850
:0E31D70090E2B9E4F0A3F090E2B7E4F0A3F0C8
:0E31E500C002C003C00490E2B7E0FEA3E0FF0A
:0E31F30090E2B6E0FA7B00C3EE9AEF64808BA8
:0E320100F063F08095F0D004D003D0024003BB
:03320F000232F593
:0C321200C002C003C004EE24B2F582EF3D
:0C321E0034E0F583E0D004D003D002209F
:05322A00E7030232E69B
:0E322F00C002C003C004C002C003C004C00639
:0E323D00C00790000312443CAE82AF8315819F
:0C324B001581D004D003D002EE242DF534
:0C32570082EF34ECF583E0FEA3E0FFA35F
:0E326300E0FAC004C006C007C00290E2B5E069
:0E327100C0E090000075F000122D33AA82AB71
:0E327F0083E58124FCF581D004EA4BD004D015
:0E328D0003D0027029FD8A828B838CF0747F3F
:08329B00124423A3E4124423B2
:0C32A300ED601090E2B5E0FDE50824FDB0
:0732AF00F8E6B505028005F9
:0532B600758201805D3E
:0C32BB0090E2B7E0FDA3E0FEED24B2FDC0
:0C32C700EE34E0FE8D828E83E0FF5307A2
:0E32D3007F8D828E83EFF090E2B9E02401F04F
:0532E100A3E03400F041
:0D32E60090E2B7E02401F0A3E03400F00214
:0232F30031E5C3
:0E32F50090E2B9E0FDA3E0FE4D60030231D788
:033303000231BCD8
:0D3306008A828B838CF0E4124423A3E4122E
:05331300442375820354
:06331800850881D00822A7
:09A92B00000000A630000000004D
:0E331E007582E61240CC7582E61240CC53E96F
:02332C00DF229E
:07332E00AA82BA010280200F
:05333500BA0202800A4B
:05333A00BA030280054A
:05333F00BA05358022F3
:0E33440090DF02E04410F090DF03E0FA54EF57
:03335200F08031D7
:0E33550090DF02E04418F090DF03E0FA44102D
:03336300F08020D7
:0E33660090DF02E04408F090DF03E0FA54EF3D
:03337400F0800FD7
:0E33770090DF02E054E7F090DF03E0FA54EF3D
:01338500F057
:043386007582012229
:0A338A00C008858108C082C083C01E
:01339400F048
:0E33950090DF62E0FD20E4F890E2BCE0FD3045
:0733A300E60590FFFF8050DA
:0733AA00ED20E703123911C9
:0C33B1007582E71240CCE50824FCF88689
:0833BD000574022DF5D97D0015
:0C33C5008D067F00E50824FCF8C3EE969E
:0C33D100EF0896501BA80808ED26FEE44B
:0D33DD000836FF0886028E828F838AF01268
:0733EA006C3CF5D90D80D405
:0933F10075D90075D900900000A7
:0633FA00850881D00822C5
:0834000090DF62E09000002261
:0E34080090DF62E0FA5302047B008A828B831D
:013416002293
:0B34170090EC51E0FA600490000022ED
:0834220090DF17E0FA54F7F007
:0D342A0090DF17E0FA530210BA010280F3A0
:08343700E5E930E7FB53BEFBA1
:0E343F00E5BE30E6FB90E2BCE4F090DF547492
:0E344D0001F090DF027402F090DF0374E2F0F1
:0E345B0090DF047430F090DF05E4F090DF0C99
:0D3469007432F090DF0D74F5F075821212D0
:0C34760038607582E71240CC7582E612C7
:0E34820040CCE4C0E0C0E0C0E0E4C0E0C0E048
:0E34900090FFFF1239DBE58124FBF581758288
:0E349E000012332E75912053E9DF539BFC90F2
:0934AC00EC517401F090000122C2
:0A34B500C008E581F5082408F58140
:0E34BF00E4C0E0758200123A4DAA82AB83157C
:0E34CD0081BA0132BB002F90E572E0FAA3E055
:0E34DB00FBA3E0FCA3E0FD0ABA00090BBB0056
:0634E900050CBC00010D02
:0E34EF0090E572EAF0A3EBF0A3ECF0A3EDF091
:0634FD009000020236A659
:0E35030090DF62E0FA30E12F90E572E0FAA36B
:0E351100E0FBA3E0FCA3E0FD0ABA00090BBB3F
:07351F0000050CBC00010DCA
:0E35260090E572EAF0A3EBF0A3ECF0A3EDF059
:063534009000020236A621
:0A353A0090E30EE0605890E2DBA879
:0C3544000808E0F6A3E008F6A3E008F693
:0E355000A3E008F6AAE27B00AFE3E42AFAEF5C
:0E355E003BFB90E2FDE0FEA3E0FFEAC39EFE11
:0C356C00EB9FFF7A007B00A80808EE2609
:0E357800FEEF0836FFEA0836FAEB0836FB9045
:0E358600E2DBEEF0A3EFF0A3EAF0A3EBF0908F
:04359400E30EE4F06E
:0D359800AAE27B00ADE3E42AFAED3BFB90D4
:0E35A500E2FBEAF0A3EBF090E30D7401F07589
:0735B30082E31240CC7A0014
:0E35BA0090DF62E0FB20E4148A030ABB0300EA
:0E35C800500C90000AC002124BAED00280E4FC
:0E35D60090DF62E0FA20E40C7582E71240CC30
:0635E4007A017B00800C5F
:0C35EA0090DF62E0FC20E4F87A007B0037
:0E35F60090E30DE06063C002C00390E2D7E5F1
:0C360400082405F8E0F6A3E008F6A3E0B7
:0E36100008F6A3E008F6ACE27D00ABE3E42C84
:0E361E00FCEB3DFD90E2FBE0FAA3E0FBECC309
:0C362C009AFAED9BFBE4FCFDE508240588
:0E363800F8EA26FAEB0836FBEC0836FCED0843
:0E36460036FD90E2D7EAF0A3EBF0A3ECF0A380
:0B365400EDF090E30DE4F0D003D00295
:0D365F00ACE27D00AFE3E42CFCEF3DFD90FC
:0E366C00E2FDECF0A3EDF090E30E7401F0909F
:0E367A00E57AE0FCA3E0FDA3E0FEA3E0FF0C78
:0C368800BC00090DBD00050EBE00010FC6
:0E36940090E57AECF0A3EDF0A3EEF0A3EFF0DA
:0436A2008A828B830A
:0636A600850881D0082216
:0A36AC00C008858108C082C083C0F9
:0836B600F0ADD9747FB50500E9
:0E36BE00503290E56AE0FAA3E0FBA3E0FCA323
:0E36CC00E0FD0ABA00090BBB00050CBC0001B2
:0136DA000DE2
:0E36DB0090E56AEAF0A3EBF0A3ECF0A3EDF0AB
:0936E90012331E90000002385A51
:0536F2007404B50500A1
:0E36F700403290E566E0FAA3E0FBA3E0FCA3FE
:0E370500E0FD0ABA00090BBB00050CBC000178
:013713000DA8
:0E37140090E566EAF0A3EBF0A3ECF0A3EDF075
:0937220012331E90000002385A17
:0D372B008D067F00EE24FEFEEF34FFFFE56B
:0C3738000824FCF8C3E69E08E69F50320F
:0E37440090E562E0FAA3E0FBA3E0FCA3E0FD49
:0D3752000ABA00090BBB00050CBC00010DFC
:0E375F0090E562EAF0A3EBF0A3ECF0A3EDF02E
:09376D0012331E90000002385ACC
:043776001D1D7E0097
:04377A00EEB50500A3
:0C377E00501FC005A80808EE26FFE40854
:0E378A0036FD0886028F828D838AF0E5D91203
:0737980044230ED00580DB85
:0E379F00E5D924D3FAE5D9FB30E75DEA33958E
:0E37AD00E0FCC003C005C002C0047582041217
:0E37BB004B2615811581D005D00353037F7A6C
:0E37C90000C005C003C002758203124B261516
:0E37D700811581D00590E57EE0FAA3E0FBA30A
:0E37E500E0FCA3E0FE0ABA00090BBB00050CD5
:0437F300BC00010E07
:0E37F70090E57EEAF0A3EBF0A3ECF0A3EEF079
:02380500803110
:0E38070090E56EE0FAA3E0FBA3E0FCA3E0FE78
:0D3815000ABA00090BBB00050CBC00010E37
:0E38220090E56EEAF0A3EBF0A3ECF0A3EEF05D
:0838300012331E9000008022FB
:0E38380090DF62E0FA53020CBA040E90DF53E8
:0B384600E0FA7007C00512331ED00529
:0938510053E9DF7A008D828A83BD
:06385A00850881D0082260
:05386000AA82BA0B0072
:073865004007741AB50200D0
:02386C00500406
:04386E007582FF223E
:0E3872007582FFC0021240CC7582E51240CC78
:0E388000D0028A037C00EB24F5FBEC34FFFC45
:0E388E00C002C003C00490000512443CAD828D
:0E389C00AE83158115818D038E0474652BFBA0
:0D38AA0074013CFC43044090DF10ECF090F2
:0E38B700DF11EBF07582E21240CCD0028A8263
:0138C50022E0
:0738C600AA827464B5020040
:0638CD0050047582FF2289
:0E38D300EA75F01FA4FBACF0C0027464C0E004
:0E38E100E4C0E08B828C83127876AD82AE83D9
:0E38EF0015811581D0028D038E0474602BFBB1
:0D38FD0074A13C90DF0AF090DF0BEBF0901F
:07390A00E2BBEAF08A822211
:0E39110090E2BCE0FA20E73490DF4F747FF0C4
:0E391F0090DF0674D2F090E2BC74804AF09003
:07392D00DF17E0FA54F7F088
:08393400E5E930E7FB53BEFB9F
:0E393C00E5BE30E6FB7582E21240CC7582E6F5
:03394A001240CC5C
:0E394D00AAE27B00ADE37C00EC2AFAED3BFB26
:0E395B0090E2FDEAF0A3EBF090E30E7401F0B1
:0439690090000122A7
:0D396D007582FF1240CC7582E51240CC90AF
:0D397A00DF17E0FA4408F090E2BCE4F090A2
:0E398700E30EE0604B90E2DBE0FAA3E0FBA36E
:0E399500E0FCA3E0FDAEE27F00A9E3E42EFE1D
:0E39A300E93FFF90E2FDE0F8A3E0F9EEC398E3
:0E39B100FEEF99FFE4F8F9EE2AFAEF3BFBE88F
:0E39BF003CFCE93DFD90E2DBEAF0A3EBF0A357
:0A39CD00ECF0A3EDF090E30EE4F03F
:0439D7009000012239
:0A39DB00C008858108AA82AB839022
:0C39E500DF4BEBF090DF4CEAF0E508242B
:0C39F100FCF890DF4D08E6F0E50824FC2F
:0C39FD00F886027B0090DF4EEAF0E5083F
:0E3A090024F9F8B6000A08B6000608B6000256
:023A17008031FC
:063A19007D437EDF7F000B
:033A1F00BF0800DD
:0C3A22005026E50824F9F8EF26FAE40825
:0E3A2E0036FB0886048A828B838CF0126C3C77
:0E3A3C00FA8D828E83F0A3AD82AE830F80D50B
:033A4A00D008227F
:0A3A4D00C0088581087A007582E246
:0E3A5700C0021240CC900040124BAED002E5EF
:093A65000824FDF8B600028045BA
:0C3A6E00E50824FDF8B6014790DF62E097
:083A7A00FB30E0317B017C0010
:083A8200EB60387401B504008B
:043A8A0050027B006B
:0E3A8E00900100C002C003C004124BAED00471
:0E3A9C00D003D00290DF62E0FD20E0047B004A
:023AAA007A019F
:033AAC000C80D3B8
:043AAF007A01800A0E
:0A3AB30090DF62E0FB20E0027AFFE2
:0C3ABD00EA3395E0FB8A828B83D008225C
:0B3AC900E582FA60067582E90240CC3D
:063AD4007582E80240CCFF
:01A934000022
:0E3ADA0075E409D2B9E5F120E60543FD088048
:013AE80003DA
:033AE90043FE0297
:073AEC0075E64453D8BF2228
:0C3AF300AA82AB838ADC8BDD43E6402214
:0C3AFF00C020C0E0C0F0C082C083C00244
:0E3B0B00C003C004C005C006C007C000C00152
:0E3B1900C0D075D000C2B9AAE27B00ADE3E4D3
:0E3B27002AFAED3BFB90E2F3EAF0A3EBF090FC
:0E3B3500E3097401F053E4BF53E6BF1222BC53
:0E3B430090E309E0604B90E2C7E0FAA3E0FBDC
:0E3B5100A3E0FCA3E0FDAEE27F00A9E3E42EBA
:0E3B5F00FEE93FFF90E2F3E0F8A3E0F9EEC3C9
:0E3B6D0098FEEF99FFE4F8F9EE2AFAEF3BFB21
:0E3B7B00E83CFCE93DFD90E2C7EAF0A3EBF068
:0B3B8900A3ECF0A3EDF090E309E4F0E2
:0E3B9400D2B9D0D0D001D000D007D006D005D5
:0E3BA200D004D003D002D083D082D0F0D0E087
:033BB000D02032F0
:080092007992E94400601B7A39
:05009A000190A8F378BD
:03009F0010759346
:0A00A200ECE493F2A308B800020595
:0800AC0093D9F4DAF27593FF19
:043BB3007A007B0019
:0E3BB700C3EA940CEB64809480504C8A04EBBB
:0D3BC500CC25E0CC33CC25E0CC33FDEC2446
:0A3BD200BFFCED34E2FD8A06EBCEE5
:0C3BDC0025E0CE33FFEE24EFF582EF343D
:0C3BE800E2F583E4F0A3F08C828D83E40E
:0C3BF400F0A3F0A3F0A3F0EA2407F58290
:0C3C0000EB34E3F583E4F00ABA00AC0BEF
:023C0C0080A98D
:013C0E002293
:0A3C0F00C008858108C082C083E56B
:0A3C190081240AF581A80808E624BA
:0A3C230007FC08E634E3FD8C828DF7
:073C2D0083E07003023CED8F
:0D3C3400ACE27D00AFE3E42CFCEF3DFDE5CC
:0A3C4100082403F8A60408A605A84D
:0C3C4B000808860608E6CE25E0CE33CE41
:0B3C570025E0CE33FFEE24BFFEEF346B
:0A3C6200E2FF8E828F83E50824053F
:0E3C6C00F8E0F6A3E008F6A3E008F6A3E008EF
:0C3C7A00F6A80808860208E6CA25E0CA81
:0A3C860033FBE5082409F8EA24EFF7
:0A3C9000F6EB34E208F6E50824091B
:0C3C9A00F88682088683E0FCA3E0FDE5CC
:0C3CA600082403F8E6C39CFC08E69DFD22
:0C3CB200E4FAFBE5082405F8EC26FCED24
:0E3CBE000836FDEA0836FAEB0836FB8E828FD8
:0D3CCC0083ECF0A3EDF0A3EAF0A3EBF0E52C
:0A3CD900082409F88682088683E5B6
:0A3CE300082403F9E7F0A309E7F055
:0C3CED00A80808860208E6CA25E0CA33D1
:0C3CF900CA25E0CA33FBEA24BFF582EBC9
:0C3D050034E2F583E0FAA3E0FBA3E0FC4D
:0C3D1100A3E08A828B838CF0850881D0AF
:023D1D0008227A
:073D1F00900000E4F5F02222
:0A3D2600C008858108AA82E583CA5F
:0C3D300025E0CA33CA25E0CA33FBEA24B0
:093D3C00BFF582EB34E2F583E5EA
:0C3D45000824FAF8E6F0A308E6F0A30852
:093D5100E6F0A308E6F0D0082218
:0A3D5A00C008E581F508240AF58190
:093D6400E5082403F8E4F608F672
:0C3D6D00E5082403F8C3E6940C08E664A3
:083D79008094804003023E5ECD
:0A3D8100E5082403F8E62407FC0817
:0C3D8B00E634E3FD8C828D83E0700302BF
:023D97003E509C
:0D3D9900ACE27D00AFE3E42CFCEF3DFDA8A3
:0A3DA6000808A60408A605E5082495
:0E3DB00003F8860608E6CE25E0CE33CE25E0E9
:0A3DBE00CE33FFEE24BFFEEF34E227
:0C3DC800FF8E828F83E5082405F8E0F6EA
:0D3DD400A3E008F6A3E008F6A3E008F6E57A
:0C3DE100082403F8860208E6CA25E0CAA0
:0A3DED0033FBE5082409F8EA24EF8F
:0A3DF700F6EB34E208F6E5082409B3
:0C3E0100F88682088683E0FCA3E0FDA8A0
:0C3E0D000808E6C39CFC08E69DFDE4FAF2
:0C3E1900FBE5082405F8EC26FCED08365B
:0E3E2500FDEA0836FAEB0836FB8E828F83EC3E
:0C3E3300F0A3EDF0A3EAF0A3EBF0E5082B
:0C3E3F002409F88682088683A90809E798
:053E4B00F0A309E7F0FF
:0B3E5000E5082403F806B6000208068F
:033E5B00023D6DB8
:063E5E00850881D0082256
:063E6400AA82AB83ACF062
:0E3E6A008A828B838CF0126C3CFD60180ABAC1
:033E780000010B3B
:0E3E7B008D82C002C003C004126A28D004D099
:053E890003D00280DC03
:013E8E002211
:0E3E8F00E582FAC4540F90A84093F582C00259
:0E3E9D00126A28D002740F5A90A84093F58242
:033EAB00026A2880
:043EAE00AA827B80E9
:0B3EB200EB6025EB5AFCE4BC000104AF
:043EBD00FCB4010050
:0D3EC100E43390A85193F582C002C00312B3
:0C3ECE006A28D003D002EBC313FB80D89D
:013EDA0022C5
:0E3EDB00758242126A28758261126A28758209
:0E3EE9006E126A2875826B126A2875823A1270
:0C3EF7006A28758220126A28859F8212BA
:083F03003EAE75820A026A2835
:0EA84000303132333435363738396162636473
:03A84E006566003C
:03A85100303100A3
:0E3F0B0090A854E493FAA3E493FBC002C00311
:0E3F19008A828B83120083D003D00290A8A16D
:0E3F2700E493FAA3E493FBC002C0038A828BEA
:0E3F350083120083D003D00290A87FE493FA99
:0D3F4300A3E493FBC002C0038A828B8312AB
:0E3F50000083D003D00290A893E493FAA3E478
:0E3F5E0093FBC002C0038A828B83120083D0C3
:043F6C0003D002225A
:0A3F7000C008858108AA82AB83AC6B
:0E3F7A00F074022AFDE43BFE8C078D828E83DC
:0C3F88008FF0E50824FCF8E6124423A3A7
:0E3F940008E6124423C002C003C004124C0011
:0E3FA200AD82AE83D004D003D0028A828B831E
:0C3FB0008CF0ED124423A3EE124423D049
:023FBC000822D9
:0E3FBE00AA82AB83ACF0126C3CFDA3126C3CEB
:0E3FCC00FE74022AFFE43BF88C018F8288838A
:0E3FDA0089F0126C3CFFA3126C3CF8EF2DFD39
:0E3FE800E83EFE8A828B838CF0ED124423A308
:043FF600EE02442370
:0D3FFA00AA82AB83ACF0C002C003C0041269
:0E4007004C00AD82AE83D004D003D0028A827A
:0D4015008B838CF0ED124423A3EE024423B4
:0A402200C008858108C082C083C079
:0C402C00F0124C00AD82AE83A80808869C
:0D403800820886830886F0126C3CFFA312FC
:0E4045006C3CFAEDC39FFDEE9AFE0DBD00012E
:014053000E5E
:0C405400A80808740226FAE40836FB08ED
:0E40600086048A828B838CF0126C3CFAA312C9
:0E406E006C3CFBC3EA9DEB9EE433FD3395E012
:0A407C00FA8D828A83850881D0083E
:014086002217
:0E408700AA82AB83ACF0126C3CFDA3126C3C21
:0E409500FE74022AFAE43BFB8A828B838CF0D5
:0E40A300126C3CFAA3126C3CFBEA2DFDEB3EC6
:0E40B100FEC005C006124C00AA82AB83D006EA
:0D40BF00D005EDC39AFDEE9B8D82F58322A6
:0540CC00AA82BAE00029
:0740D1004032BAE202800850
:0540D800BAE3028003C1
:0340DD00BAE5221F
:0D40E00090DF53E0FB8AE1900002C0031264
:0E40ED004BAED00390DF53E0FCEBB504012294
:0740FB0075E1E675E1E62224
:034102008AE1222D
:0C410500BADE1053E9FD75E1DF75E1FE44
:07411100E5E920E10480F95B
:024118008AE13A
:01411A002282
:03411B0002341754
:0A411E00C008858108AA82AB83ACBB
:0C412800F0E50824FCF8E6C0E008E6C062
:0E413400E08A828B838CF012338AAA82AB83DE
:0B414200158115818A828B83D0082232
:03414D000234B584
:0341500002396DC4
:034153000239111D
:0A415600C008858108AA82AB83AC83
:0C416000F0E50824FCF8E6C0E008E6C02A
:0E416C00E08A828B838CF012338A15811581D4
:06417A001234B5D008224A
:0A418000C008858108AA82AB83AC59
:0C418A00F0E50824FCF8E6C0E008E6C000
:0E419600E08A828B838CF01236ACAA82AB8357
:0B41A400158115818A828B83D00822D0
:0E41AF00E4C0E0758200123A4DAA82AB83157F
:0641BD00818A828B83223F
:0341C300023400C3
:0341C600023408B8
:02A854001B41A6
:02A856001E41A1
:02A858004D4170
:02A85A00564165
:02A85C00804139
:02A85E00AF4108
:02A86000C341F2
:02A86200C641ED
:02A8640053415E
:02A8660050415F
:0A41C900C008858108C082C083C0D1
:0A41D300F00581E5082404F87600E9
:0841DD00E5082404F8B6020015
:0A41E5005045A80808E5082404F975
:0C41EF00E726FEE40836FF088602E5081B
:0C41FB0024FBF88603088604088605E50E
:0C420700082404F8E62BFBE43CFC8B824E
:0E4213008C838DF0126C3CFB8E828F838AF0C0
:0B422100124423E5082404F80680B1D5
:06422C00850881D0082284
:0A423200C008858108C082C083C067
:0A423C00F00581E5082404F876007F
:08424600E5082404F8B60200AB
:0A424E005051A80808E5082404F9FF
:0C425800E726FEE40836FF088602E508B1
:0C42640024FBF88603088604088605E5A4
:0C427000082404F8E62BFBE43CFC8E82E2
:0E427C008F838AF0126C3CFE8B828C838DF057
:0A428A00126C3CFBEEB50302800548
:05429400900000800B0A
:08429900E5082404F80680A5E5
:0342A10090000189
:0642A400850881D008220C
:0D42AA00AA82AB83ACF0C002C003C0049038
:0E42B700E31375F0001241C9158115811581C0
:0142C50022D6
:02A868000000EE
:0A42C600C008E581F5082405F58124
:0C42D000AA82AB83ACF07D007E00A80841
:0542DC0008E4F608F6FD
:0A42E100C005C006A80808E508247F
:0E42EB0003F9E62AF708E63B09F709A704E500
:0C42F900082403F886820886830886F0FB
:0E430500126C3C1818F6A3126C3C08F6A312BA
:0C4313006C3C08F6E5082403F8B6000E28
:0E431F0008B6000A08B60006D006D005804891
:0E432D00D006D005C002C003C004C005C00603
:0C433B00E4C0E0C0E0C0E0E5082403F8A6
:0E43470086820886830886F01225E615811509
:0E435500811581D006D005D004D003D002A877
:0C4363000808740326F6E40836F60DBDC9
:03436F0000010E3C
:034372000242E123
:06437500850881D008223A
:0A437B00C008E581F5082405F5816E
:0C438500AA82AB83ACF07D007E00A8088B
:0543910008E4F608F647
:0A439600C005C006A80808E50824C9
:0E43A00003F9E62AF708E63B09F709A704E54A
:0C43AE00082403F886820886830886F045
:0E43BA00126C3C1818F6A3126C3C08F6A31205
:0C43C8006C3C08F6E5082403F8B6000E73
:0E43D40008B6000A08B60006D006D005803BE9
:0C43E200D006D005E5082403F886820808
:0E43EE0086830886F0C002C003C004C005C06C
:0E43FC0006122A90D006D005D004D003D002BD
:0C440A00A80808740326F6E40836F60D36
:04441600BD00010ED6
:03441A00024396C4
:06441D00850881D0082291
:0E44230020F71030F6118883A88220F507F6E6
:05443100A88375830063
:014436002263
:03443700F280F719
:02443A00F0226E
:0A443C00C008858108C082C083E536
:0A444600812407F581AA080AE508A1
:0C4450002403F8A602087600087640E578
:0A445C000824FCFA7B007C40E50810
:0C4466002406F8E5082403F98782098782
:0E447200830987F0126C3CFD8A828B838CF0EC
:0C448000126C3CFE8DF0A4F608A6F0E5DE
:0C448C0008240604F886070ABA00010B99
:0E4498008A828B838CF0126C3C8DF0A4FDE5C3
:0C44A600082403F9740127FAE40937FB2D
:0E44B2000987048A828B838CF0126C3CFA8A94
:0C44C000F0EEA42D2FF6E5082406F88687
:0C44CC00020886038A828B83850881D059
:0244D8000822B8
:0144DA0022BF
:0E44DB007A00C00212240DAB82D002EB30E654
:0344E900027A0450
:0744EC00EB30E7034302017E
:0344F3008A822298
:0E44F600AA82C00212240DAB82D00290E31500
:0E450400EBF0EA30E20990E31574404BF080D2
:0145120007A1
:0745130090E31574BF5BF09B
:0E451A00EA30E00A90E315E0FA4480F08008F1
:0845280090E315E0FA547FF066
:0945300090E315E0F5820223C2BC
:0E45390090E350E4F0A3F090E34EE4F0A3F022
:0E45470090E3527430F090EC52E0FAA3E0FBE7
:0E455500A3E0FC90E40574302AF0E43BA3F0F0
:06456300A3ECF00249FF89
:0745690090E3527430F022D0
:0A457000C008858108C082C083C026
:0C457A00F0124539E50824FCF8C37480F9
:0C45860096E4089650067D807E00800AB6
:0A459200E50824FCF88605088606FB
:0E459C0090E405E0FFA3E0FAA3E0FBC005C039
:0C45AA0006C005C006A80808E6C0E0082E
:0E45B600E6C0E008E6C0E08F828A838BF01238
:0D45C400569DE58124FBF581D006D00590C1
:0C45D100E34EEDF0A3EEF08D828E8385AA
:0545DD000881D0082256
:0A45E200C008E581F5082407F58103
:0D45EC00124979E5828583F045F0604C129C
:0C45F90049C7A808080808A68208A68385
:0E4605001249B5AC82AD83AEF090EC52E0FFEE
:0E461300A3E0FAA3E0FB74302FFFE43AFAE5CF
:0C462100082403F8E6C0E008E6C0E0C092
:0E462D0004C005C0068F828A838BF012569D52
:09463B00E58124FBF5810246E74C
:0E46440090E350E0FAA3E0FB4A70030246E761
:0E4652001249C7AA82AB8374302AFAE43BFBFC
:08466000A80808763008760076
:0C466800A80808C3E69A08E664808BF0FE
:0E46740063F08095F05065C002C00390EC52D8
:0C468200E0FEA3E0FFA3E0FAA80808E5B2
:0C468E00082405F9E62EF708E63F09F7BE
:0C469A0009A70290E350E0FBA3E0FCA89D
:0C46A6000808E62BFB08E63CFCEB2EFEAF
:0E46B200EC3FFF8E828F838AF0126C3CFEE597
:0C46C000082405F886820886830886F02E
:0C46CC00EE124423A8080806B6000208FD
:0146D80006DB
:0746D900D003D00202466885
:0746E00090E350E4F0A3F0A9
:0646E700850881D00822C5
:0A46ED00C008858108C082C083C0A8
:0E46F700F090E352E0FDFE7F007430C39EFEA3
:0E470500E49FFF90EC52E0FAA3E0FBA3E0FC7F
:0E471300ED2AFDE43BFBC006C007C005C00355
:0C472100C004A808088682088683088669
:0E472D00F012569DE58124FBF58190E352E0E9
:0E473B00FB7C007430C39BFBE49CFC8B828CE7
:0747490083850881D00822DE
:0A475000C008858108C082C083C044
:0E475A00F0E5812408F58190E352E0FDFE7F3A
:0C47680000E5082404F87430C39EF6E459
:0C4774009F08F690E34EE0FAA3E0FBE59E
:0C478000082404F8EA26FAEB0836FBC314
:0D478C0074809AE49B50069000000248578C
:0E4799007430C39EFEE49FFF90EC52E0FAA342
:0E47A700E0FBA3E0FCED2AFAE43BFBC006C0F9
:0C47B50007C002C003C004A808088682E8
:0E47C1000886830886F012569DE58124FBF5DC
:0E47CF008190E350E0FAA3E0FB90E405E0FCEB
:0E47DD00A3E0FDA3E0FEEA2CFAEB3DFB8E0705
:0A47EB00A80808E5082406F9743058
:0E47F50026F7E4083609F70809E6F790E352C4
:0C480300E0FC7D00E5082406F8E6C39CFC
:0E480F00FC08E69DFD08860690E34EE0C0E042
:0E481D00A3E0C0E0C002C003C0078C828D8300
:0E482B008EF012569DE58124FBF58190E3523C
:0D483900E0FA7B007430C39AFAE49BFB9018
:0E484600E34EE0FCA3E0FDEC2AFAED3BFB8A1A
:03485400828B83D1
:06485700850881D0082253
:0E485D00AA82AB8390E352E0FC7D00C3EC9A8C
:0E486B00ED64808BF063F08095F0402BC0026E
:0E487900C0031249DFAC82AD83D003D002EA47
:0E4887002CFCEB3DFDC374809CE49D400E9024
:0D489500E352E090E352C39AF0900001223C
:0448A2009000002260
:0E48A600AA8290E352E0FB90E352EA2BF0224C
:0E48B400AA82AB8390E34EE0FCA3E0FD8A06EF
:0D48C2008B07C3EC9EED9F50049000002278
:0E48CF0090E350E0FEA3E0FF90E350EA2EF0ED
:0E48DD00EB3FA3F090E34EECC39AF0ED9BA3EB
:0548EB00F09000012225
:0C48F000AA83E58290E34EF0A3EAF022D8
:0E48FC0090E350E0FAA3E0FB74302AFAE43BAC
:0E490A00FB90EC52E0FCA3E0FDA3E0FEEA2CE3
:0E491800FAEB3DFB8E077C008A828B838CF0CD
:01492600226E
:0E49270090EC52E0FAA3E0FBA3E090E352E034
:0E4935002AFAE43BFB7C008A828B838CF02202
:0A494300C008858108AA82AB83AC8E
:0E494D00F0C002C003C004124539D004D003EC
:0E495B00D00290E405EAF0A3EBF0A3ECF0E547
:0C4969000824FCF890E34EE6F008A3E6FA
:04497500F0D0082254
:0E49790090EC52E0FAA3E0FBA3E0FC74302ABD
:0E498700FAE43BFB90E405E0FDA3E0FEA3E0B4
:0E499500FFEDB5020CEEB50308EFB504047497
:0349A3000180018F
:0149A600E42C
:0449A700FAB401005D
:0A49AB00E433FA7B008A828B83223A
:0E49B50090E405E0FAA3E0FBA3E0FC8A828B0D
:0449C300838CF022CF
:0C49C70090E34EE0FAA3E08A82F5832220
:0C49D30090E352E0FA7430C39AF582229F
:0E49DF001249D3AA827B00C002C0031249C74E
:0E49ED00AC82AD83D003D002EC2AFAED3B8AF7
:0449FB0082F583229C
:0449FF007A007B00BF
:0E4A0300C3EA9418EB64809480501E8A04EB82
:0C4A1100CC25E0CC33FDEC2416F582ED42
:0C4A1D0034E3F583E4F0A3F00ABA00DAF9
:034A29000B80D728
:044A2C007A007B0091
:0E4A3000C3EA9404EB64809480503D8A04EB4A
:0C4A3E00CC25E0CC33FDEC2446FCED342C
:0A4A4A00E3FD7E00C002C0037468A3
:0C4A5400C0E074A8C0E07480C0E08C8258
:0E4A60008D838EF01241C9158115811581D00C
:0A4A6E0003D0020ABA00BB0B80B8A7
:014A7800221B
:0A4A7900C008858108AA82AB83AC57
:0C4A8300F07430C0E0E4C0E07416C0E045
:0C4A8F0074E3C0E0E4C0E08A828B838CFA
:0C4A9B00F012569DE58124FBF581E50832
:0E4AA70024FBF886020886030886047408C003
:0A4AB500E0E4C0E07446C0E074E3E2
:0E4ABF00C0E0E4C0E08A828B838CF012569D2A
:094ACD00E58124FBF581D00822EB
:0A4AD600C008858108AA82AB83ACFA
:0E4AE000F07430C0E0E4C0E0C002C003C004C7
:0E4AEE0090E31675F00012569DE58124FBF54D
:0C4AFC00817408C0E0E4C0E0E50824FB81
:0D4B0800F8E6C0E008E6C0E008E6C0E09076
:0E4B1500E34675F00012569DE58124FBF58104
:034B2300D0082295
:0A4B2600C008858108E5822582247D
:094B300016F582E434E3F583E597
:0B4B39000824FCF8E6F0A308E6F0906A
:054B44000001D0082271
:0A4B4900E58225822416F582E4348B
:0C4B5300E3F583E0FAA3E08A82F58322F8
:0A4B5F00C008858108E58224E825DE
:0A4B6900E02446FAE434E3FB7C008C
:0C4B7300E50824FBF8E6C0E008E6C0E01E
:0E4B7F0008E6C0E08A828B838CF01241C915D3
:0B4B8D008115811581900001D00822E5
:0B4B9800E58224E825E02446FAE4341E
:0B4BA300E3FB7C008A828B838CF022F5
:03A9350053E300E9
:084BAE00AA82AB837C007D00AC
:084BB600C3EC9AED9B400122C3
:094BBE00000CBC00F30D024BB623
:0E4BC700AA82AB83C002C003124C00AC82ADC8
:054BD50083D003D002B3
:0E4BDA00C002C003C004C005124C00AE82AF82
:0E4BE80083D005D004D003D002EEC39CFEEFB4
:0A4BF6009DFFC3EE9AEF9B40DB2207
:0C4C000090EC55E0FAA3E08A82F58322D4
:0E4C0C0090EC57E0FAA3E0FB7C007D008A826A
:064C1A008B838CF0ED22FB
:0E4C200075C6B0AA957B007C007D00AE967F25
:0E4C2E0000780088018F008E07E42AFAEF3B21
:0E4C3C00FBE83CFCE93DFDAE977F008F018E4A
:0E4C4A0000E4FF2AFAEF3BFBE83CFCE93DFDED
:0E4C580074012BFBE43CFCE43DFD90E408EA13
:0E4C6600F0A3EBF0A3ECF0A3EDF08C978B968F
:064C74008A9543A82022EE
:0C4C7A00C020C0E0C0F0C082C083C002B7
:0E4C8600C003C004C005C006C007C000C001C6
:0E4C9400C0D075D000C2AFAAE27B00ADE3E451
:0E4CA2002AFAED3BFB90E2F3EAF0A3EBF09070
:0E4CB000E3097401F0AA957B007C007D00AE44
:0E4CBE00967F00780088018F008E07E42AFAA6
:0E4CCC00EF3BFBE83CFCE93DFDAE977F008F1F
:0E4CDA00018E00E4FFFE2AFAEF3BFBE83CFCF3
:0E4CE800E93DFD74012BFBE43CFCE43DFD9036
:0E4CF600E408EAF0A3EBF0A3ECF0A3EDF08CE1
:0E4D0400978B968A9590EC55E02401F0A3E081
:0E4D12003400F090EC55E0FAA3E0FBEA547F89
:0E4D2000700C90EC57E02401F0A3E03400F09A
:0D4D2E00121E95E5828583F045F060271286
:0E4D3B001EB9AA82AB8390EC55E0FCA3E0FD0C
:0C4D4900EAC39CFAEB9DFB1ABAFF011BA9
:0C4D5500C374FF9A747F9B5003121C5B18
:0E4D610053C07F90E309E0604B90E2C7E0FA98
:0E4D6F00A3E0FBA3E0FCA3E0FDAEE27F00A901
:0E4D7D00E3E42EFEE93FFF90E2F3E0F8A3E04E
:0E4D8B00F9EEC398FEEF99FFE4F8F9EE2AFA6C
:0E4D9900EF3BFBE83CFCE93DFD90E2C7EAF091
:0E4DA700A3EBF0A3ECF0A3EDF090E309E4F031
:0E4DB500D2AFD0D0D001D000D007D006D005AC
:0E4DC300D004D003D002D083D082D0F0D0E054
:034DD100D02032BD
:02A9380000001D
